{
  "address": "0xB11471C92665Ae1EFD4b67aE1533Ac342BF03c5C",
  "abi": [
    {
      "inputs": [],
      "stateMutability": "nonpayable",
      "type": "constructor"
    },
    {
      "anonymous": false,
      "inputs": [
        {
          "indexed": true,
          "internalType": "address",
          "name": "from",
          "type": "address"
        },
        {
          "indexed": true,
          "internalType": "address",
          "name": "by",
          "type": "address"
        },
        {
          "indexed": true,
          "internalType": "address",
          "name": "to",
          "type": "address"
        },
        {
          "indexed": false,
          "internalType": "address",
          "name": "token",
          "type": "address"
        },
        {
          "indexed": false,
          "internalType": "uint256",
          "name": "amount",
          "type": "uint256"
        },
        {
          "indexed": false,
          "internalType": "uint32",
          "name": "timestamp",
          "type": "uint32"
        }
      ],
      "name": "Approve",
      "type": "event"
    },
    {
      "anonymous": false,
      "inputs": [
        {
          "indexed": false,
          "internalType": "uint32",
          "name": "timestamp",
          "type": "uint32"
        }
      ],
      "name": "BlockNewParticipants",
      "type": "event"
    },
    {
      "anonymous": false,
      "inputs": [
        {
          "indexed": true,
          "internalType": "address",
          "name": "depositor",
          "type": "address"
        },
        {
          "indexed": true,
          "internalType": "address",
          "name": "recipient",
          "type": "address"
        },
        {
          "indexed": true,
          "internalType": "address",
          "name": "token",
          "type": "address"
        },
        {
          "indexed": false,
          "internalType": "uint256",
          "name": "amount",
          "type": "uint256"
        },
        {
          "indexed": false,
          "internalType": "uint32",
          "name": "timestamp",
          "type": "uint32"
        }
      ],
      "name": "Deposit",
      "type": "event"
    },
    {
      "anonymous": false,
      "inputs": [
        {
          "indexed": false,
          "internalType": "uint32",
          "name": "timestamp",
          "type": "uint32"
        }
      ],
      "name": "Freeze",
      "type": "event"
    },
    {
      "anonymous": false,
      "inputs": [
        {
          "indexed": false,
          "internalType": "uint8",
          "name": "version",
          "type": "uint8"
        }
      ],
      "name": "Initialized",
      "type": "event"
    },
    {
      "anonymous": false,
      "inputs": [
        {
          "indexed": true,
          "internalType": "address",
          "name": "participant",
          "type": "address"
        },
        {
          "indexed": false,
          "internalType": "uint32",
          "name": "timestamp",
          "type": "uint32"
        }
      ],
      "name": "NewParticipant",
      "type": "event"
    },
    {
      "anonymous": false,
      "inputs": [
        {
          "indexed": true,
          "internalType": "address",
          "name": "from",
          "type": "address"
        },
        {
          "indexed": true,
          "internalType": "address",
          "name": "by",
          "type": "address"
        },
        {
          "indexed": true,
          "internalType": "address",
          "name": "to",
          "type": "address"
        },
        {
          "indexed": false,
          "internalType": "address",
          "name": "token",
          "type": "address"
        },
        {
          "indexed": false,
          "internalType": "uint256",
          "name": "amount",
          "type": "uint256"
        },
        {
          "indexed": false,
          "internalType": "uint32",
          "name": "timestamp",
          "type": "uint32"
        }
      ],
      "name": "Refund",
      "type": "event"
    },
    {
      "anonymous": false,
      "inputs": [
        {
          "indexed": false,
          "internalType": "uint32",
          "name": "timestamp",
          "type": "uint32"
        }
      ],
      "name": "UnblockNewParticipants",
      "type": "event"
    },
    {
      "anonymous": false,
      "inputs": [
        {
          "indexed": false,
          "internalType": "uint32",
          "name": "timestamp",
          "type": "uint32"
        }
      ],
      "name": "Unfreeze",
      "type": "event"
    },
    {
      "anonymous": false,
      "inputs": [
        {
          "indexed": true,
          "internalType": "address",
          "name": "by",
          "type": "address"
        },
        {
          "indexed": false,
          "internalType": "address",
          "name": "_token",
          "type": "address"
        },
        {
          "indexed": false,
          "internalType": "uint256",
          "name": "amount",
          "type": "uint256"
        },
        {
          "indexed": false,
          "internalType": "uint32",
          "name": "timestamp",
          "type": "uint32"
        }
      ],
      "name": "Withdraw",
      "type": "event"
    },
    {
      "stateMutability": "payable",
      "type": "fallback"
    },
    {
      "inputs": [
        {
          "internalType": "address",
          "name": "_from",
          "type": "address"
        },
        {
          "internalType": "address",
          "name": "_to",
          "type": "address"
        },
        {
          "internalType": "address",
          "name": "_token",
          "type": "address"
        },
        {
          "internalType": "uint256",
          "name": "_amount",
          "type": "uint256"
        },
        {
          "internalType": "bool",
          "name": "_attemptPayment",
          "type": "bool"
        }
      ],
      "name": "approve",
      "outputs": [
        {
          "internalType": "bool",
          "name": "_success",
          "type": "bool"
        }
      ],
      "stateMutability": "nonpayable",
      "type": "function"
    },
    {
      "inputs": [],
      "name": "blockNewParticipants",
      "outputs": [
        {
          "internalType": "bool",
          "name": "",
          "type": "bool"
        }
      ],
      "stateMutability": "view",
      "type": "function"
    },
    {
      "inputs": [
        {
          "internalType": "address",
          "name": "_to",
          "type": "address"
        },
        {
          "internalType": "address",
          "name": "_token",
          "type": "address"
        },
        {
          "internalType": "uint256",
          "name": "_amount",
          "type": "uint256"
        }
      ],
      "name": "deposit",
      "outputs": [
        {
          "internalType": "bool",
          "name": "_success",
          "type": "bool"
        }
      ],
      "stateMutability": "payable",
      "type": "function"
    },
    {
      "inputs": [],
      "name": "feesPermyriad",
      "outputs": [
        {
          "internalType": "uint8",
          "name": "",
          "type": "uint8"
        }
      ],
      "stateMutability": "view",
      "type": "function"
    },
    {
      "inputs": [],
      "name": "getBalance",
      "outputs": [
        {
          "internalType": "uint256",
          "name": "_balance",
          "type": "uint256"
        }
      ],
      "stateMutability": "view",
      "type": "function"
    },
    {
      "inputs": [
        {
          "internalType": "address",
          "name": "",
          "type": "address"
        },
        {
          "internalType": "address",
          "name": "",
          "type": "address"
        }
      ],
      "name": "getEscrowRemainingInput",
      "outputs": [
        {
          "internalType": "uint256",
          "name": "",
          "type": "uint256"
        }
      ],
      "stateMutability": "view",
      "type": "function"
    },
    {
      "inputs": [],
      "name": "getParticipants",
      "outputs": [
        {
          "internalType": "address[]",
          "name": "_participants",
          "type": "address[]"
        }
      ],
      "stateMutability": "view",
      "type": "function"
    },
    {
      "inputs": [
        {
          "internalType": "address",
          "name": "",
          "type": "address"
        },
        {
          "internalType": "address",
          "name": "",
          "type": "address"
        }
      ],
      "name": "getRefundableBalance",
      "outputs": [
        {
          "internalType": "uint256",
          "name": "",
          "type": "uint256"
        }
      ],
      "stateMutability": "view",
      "type": "function"
    },
    {
      "inputs": [
        {
          "internalType": "address",
          "name": "",
          "type": "address"
        },
        {
          "internalType": "address",
          "name": "",
          "type": "address"
        }
      ],
      "name": "getWithdrawableBalance",
      "outputs": [
        {
          "internalType": "uint256",
          "name": "",
          "type": "uint256"
        }
      ],
      "stateMutability": "view",
      "type": "function"
    },
    {
      "inputs": [
        {
          "internalType": "address[]",
          "name": "_participants",
          "type": "address[]"
        },
        {
          "internalType": "address",
          "name": "_judge",
          "type": "address"
        },
        {
          "internalType": "bool",
          "name": "_blockNewParticipants",
          "type": "bool"
        }
      ],
      "name": "initialize",
      "outputs": [],
      "stateMutability": "nonpayable",
      "type": "function"
    },
    {
      "inputs": [],
      "name": "isFreezed",
      "outputs": [
        {
          "internalType": "bool",
          "name": "",
          "type": "bool"
        }
      ],
      "stateMutability": "view",
      "type": "function"
    },
    {
      "inputs": [],
      "name": "judge",
      "outputs": [
        {
          "internalType": "address",
          "name": "",
          "type": "address"
        }
      ],
      "stateMutability": "view",
      "type": "function"
    },
    {
      "inputs": [],
      "name": "mainContractAddress",
      "outputs": [
        {
          "internalType": "address",
          "name": "",
          "type": "address"
        }
      ],
      "stateMutability": "view",
      "type": "function"
    },
    {
      "inputs": [
        {
          "internalType": "address",
          "name": "",
          "type": "address"
        }
      ],
      "name": "participantExists",
      "outputs": [
        {
          "internalType": "bool",
          "name": "",
          "type": "bool"
        }
      ],
      "stateMutability": "view",
      "type": "function"
    },
    {
      "inputs": [
        {
          "internalType": "uint256",
          "name": "",
          "type": "uint256"
        }
      ],
      "name": "participants",
      "outputs": [
        {
          "internalType": "address",
          "name": "",
          "type": "address"
        }
      ],
      "stateMutability": "view",
      "type": "function"
    },
    {
      "inputs": [
        {
          "internalType": "address",
          "name": "_from",
          "type": "address"
        },
        {
          "internalType": "address",
          "name": "_to",
          "type": "address"
        },
        {
          "internalType": "address",
          "name": "_token",
          "type": "address"
        },
        {
          "internalType": "uint256",
          "name": "_amount",
          "type": "uint256"
        },
        {
          "internalType": "bool",
          "name": "_attemptPayment",
          "type": "bool"
        }
      ],
      "name": "refund",
      "outputs": [
        {
          "internalType": "bool",
          "name": "_success",
          "type": "bool"
        }
      ],
      "stateMutability": "nonpayable",
      "type": "function"
    },
    {
      "inputs": [],
      "name": "toggleFreeze",
      "outputs": [
        {
          "internalType": "bool",
          "name": "_isFreezed",
          "type": "bool"
        }
      ],
      "stateMutability": "nonpayable",
      "type": "function"
    },
    {
      "inputs": [],
      "name": "toggleParticipantBlock",
      "outputs": [
        {
          "internalType": "bool",
          "name": "_blockNewParticipants",
          "type": "bool"
        }
      ],
      "stateMutability": "nonpayable",
      "type": "function"
    },
    {
      "inputs": [],
      "name": "totalParticipants",
      "outputs": [
        {
          "internalType": "uint256",
          "name": "_totalParticipants",
          "type": "uint256"
        }
      ],
      "stateMutability": "view",
      "type": "function"
    },
    {
      "inputs": [],
      "name": "treasuryAddress",
      "outputs": [
        {
          "internalType": "address",
          "name": "",
          "type": "address"
        }
      ],
      "stateMutability": "view",
      "type": "function"
    },
    {
      "inputs": [
        {
          "internalType": "address",
          "name": "_token",
          "type": "address"
        },
        {
          "internalType": "uint256",
          "name": "_amount",
          "type": "uint256"
        }
      ],
      "name": "withdraw",
      "outputs": [
        {
          "internalType": "bool",
          "name": "_success",
          "type": "bool"
        }
      ],
      "stateMutability": "nonpayable",
      "type": "function"
    },
    {
      "stateMutability": "payable",
      "type": "receive"
    }
  ],
  "transactionHash": "0xe2ed1dc40935a6d124b1ea90ddfb9335dcb716fed1b9654a2a44b63be7c2bb5f",
  "args": [],
  "numDeployments": 2,
  "solcInputHash": "d0d65a49fd6280f7d3cbd424c73c7714",
  "bytecode": "0x608060405234801561001057600080fd5b5061307c806100206000396000f3fe60806040526004361061016e5760003560e01c80637aee1c6b116100cb578063a26dbf261161007f578063c63534b711610059578063c63534b714610498578063da6b7356146104b8578063f3fef3a3146104e557610182565b8063a26dbf2614610423578063b9469e1a14610438578063c5f956af1461046b57610182565b806388f3866d116100b057806388f3866d1461039e57806393dcd021146103d6578063a024a2331461040e57610182565b80637aee1c6b146103695780638340f5491461038b57610182565b806348b686701161012257806358e70dcd1161010757806358e70dcd146102e35780635aa68ac01461031757806368014cec1461033957610182565b806348b6867014610272578063573255f4146102b657610182565b806334fc25911161015357806334fc2591146101e057806335c1d349146101f5578063481763ac1461023a57610182565b806312065fe01461018e5780631ef14409146101b057610182565b366101825761017f60003034610505565b50005b61017f60003034610505565b34801561019a57600080fd5b50475b6040519081526020015b60405180910390f35b3480156101bc57600080fd5b506101d06101cb366004612c3a565b610c79565b60405190151581526020016101a7565b3480156101ec57600080fd5b506101d06112a2565b34801561020157600080fd5b50610215610210366004612e2f565b611458565b60405173ffffffffffffffffffffffffffffffffffffffff90911681526020016101a7565b34801561024657600080fd5b5061019d610255366004612c02565b603860209081526000928352604080842090915290825290205481565b34801561027e57600080fd5b506034546102a49074010000000000000000000000000000000000000000900460ff1681565b60405160ff90911681526020016101a7565b3480156102c257600080fd5b506035546102159073ffffffffffffffffffffffffffffffffffffffff1681565b3480156102ef57600080fd5b506034546101d090760100000000000000000000000000000000000000000000900460ff1681565b34801561032357600080fd5b5061032c61148f565b6040516101a79190612e80565b34801561034557600080fd5b506101d0610354366004612bca565b60376020526000908152604090205460ff1681565b34801561037557600080fd5b50610389610384366004612d0c565b6114fe565b005b6101d0610399366004612ca1565b610505565b3480156103aa57600080fd5b5061019d6103b9366004612c02565b603a60209081526000928352604080842090915290825290205481565b3480156103e257600080fd5b5061019d6103f1366004612c02565b603960209081526000928352604080842090915290825290205481565b34801561041a57600080fd5b506101d0611a8d565b34801561042f57600080fd5b5060365461019d565b34801561044457600080fd5b506034546101d0907501000000000000000000000000000000000000000000900460ff1681565b34801561047757600080fd5b506033546102159073ffffffffffffffffffffffffffffffffffffffff1681565b3480156104a457600080fd5b506101d06104b3366004612c3a565b611ccc565b3480156104c457600080fd5b506034546102159073ffffffffffffffffffffffffffffffffffffffff1681565b3480156104f157600080fd5b506101d0610500366004612ce1565b6122ca565b6034546000907501000000000000000000000000000000000000000000900460ff1615610593576040517f08c379a000000000000000000000000000000000000000000000000000000000815260206004820152600e60248201527f657363726f7720667265657a656400000000000000000000000000000000000060448201526064015b60405180910390fd5b603454760100000000000000000000000000000000000000000000900460ff1615806105d357503360009081526037602052604090205460ff1615156001145b806105f5575060345473ffffffffffffffffffffffffffffffffffffffff1633145b61065b576040517f08c379a000000000000000000000000000000000000000000000000000000000815260206004820152601860248201527f6e6577207061727469636970616e747320626c6f636b65640000000000000000604482015260640161058a565b61066361263b565b3373ffffffffffffffffffffffffffffffffffffffff851614156106e3576040517f08c379a000000000000000000000000000000000000000000000000000000000815260206004820152601560248201527f63616e74206465706f73697420796f757273656c660000000000000000000000604482015260640161058a565b600034156108bb5773ffffffffffffffffffffffffffffffffffffffff84163014610790576040517f08c379a000000000000000000000000000000000000000000000000000000000815260206004820152602560248201527f63616e742073656e6420746f6b656e732077697468206e61746976652063757260448201527f72656e6379000000000000000000000000000000000000000000000000000000606482015260840161058a565b6034543490612710906107be9074010000000000000000000000000000000000000000900460ff1683612f2b565b6107c89190612ef2565b9150811561089c5760335460405160009173ffffffffffffffffffffffffffffffffffffffff169084908381818185875af1925050503d806000811461082a576040519150601f19603f3d011682016040523d82523d6000602084013e61082f565b606091505b505090508061089a576040517f08c379a000000000000000000000000000000000000000000000000000000000815260206004820152601760248201527f7472656173757279207061796d656e74206661696c6564000000000000000000604482015260640161058a565b505b6108b086306108ab8585612f68565b6126af565b600192505050610c69565b60008473ffffffffffffffffffffffffffffffffffffffff166318160ddd6040518163ffffffff1660e01b815260040160206040518083038186803b15801561090357600080fd5b505afa158015610917573d6000803e3d6000fd5b505050506040513d601f19601f8201168201806040525081019061093b9190612e47565b11801561095e575073ffffffffffffffffffffffffffffffffffffffff84163014155b6109c4576040517f08c379a000000000000000000000000000000000000000000000000000000000815260206004820152601760248201527f6e6f7420612076616c696420657263323020746f6b656e000000000000000000604482015260640161058a565b603454612710906109f09074010000000000000000000000000000000000000000900460ff1685612f2b565b6109fa9190612ef2565b90508015610b1a576033546040517f23b872dd00000000000000000000000000000000000000000000000000000000815233600482015273ffffffffffffffffffffffffffffffffffffffff918216602482015260448101839052908516906323b872dd90606401602060405180830381600087803b158015610a7c57600080fd5b505af1158015610a90573d6000803e3d6000fd5b505050506040513d601f19601f82011682018060405250810190610ab49190612e13565b610b1a576040517f08c379a000000000000000000000000000000000000000000000000000000000815260206004820152601760248201527f7472656173757279207061796d656e74206661696c6564000000000000000000604482015260640161058a565b73ffffffffffffffffffffffffffffffffffffffff84166323b872dd3330610b428588612f68565b6040517fffffffff0000000000000000000000000000000000000000000000000000000060e086901b16815273ffffffffffffffffffffffffffffffffffffffff93841660048201529290911660248301526044820152606401602060405180830381600087803b158015610bb657600080fd5b505af1158015610bca573d6000803e3d6000fd5b505050506040513d601f19601f82011682018060405250810190610bee9190612e13565b610c54576040517f08c379a000000000000000000000000000000000000000000000000000000000815260206004820152601560248201527f746f6b656e207472616e73666572206661696c65640000000000000000000000604482015260640161058a565b610c6385856108ab8487612f68565b60019150505b610c7260018055565b9392505050565b6000610c8361263b565b6034547501000000000000000000000000000000000000000000900460ff1615610d09576040517f08c379a000000000000000000000000000000000000000000000000000000000815260206004820152600e60248201527f657363726f7720667265657a6564000000000000000000000000000000000000604482015260640161058a565b3373ffffffffffffffffffffffffffffffffffffffff861614801590610d5b57508573ffffffffffffffffffffffffffffffffffffffff168573ffffffffffffffffffffffffffffffffffffffff1614155b8015610d9d57503373ffffffffffffffffffffffffffffffffffffffff87161480610d9d575060355473ffffffffffffffffffffffffffffffffffffffff1633145b610e03576040517f08c379a000000000000000000000000000000000000000000000000000000000815260206004820152601460248201527f756e617574686f72697a656420617070726f7665000000000000000000000000604482015260640161058a565b73ffffffffffffffffffffffffffffffffffffffff8085166000908152603860209081526040808320938a1683529290522054831115610e9f576040517f08c379a000000000000000000000000000000000000000000000000000000000815260206004820152601960248201527f696e73756666696369656e7420657363726f7720696e70757400000000000000604482015260640161058a565b73ffffffffffffffffffffffffffffffffffffffff8085166000908152603a6020908152604080832093891683529290522054831115610f3b576040517f08c379a000000000000000000000000000000000000000000000000000000000815260206004820152601560248201527f756e646573657276696e6720726563697069656e740000000000000000000000604482015260640161058a565b73ffffffffffffffffffffffffffffffffffffffff8085166000908152603860209081526040808320938a1683529290522054610f79908490612f68565b73ffffffffffffffffffffffffffffffffffffffff80861660008181526038602090815260408083208c86168452825280832095909555918152603a825283812092891681529190522054610fcf908490612f68565b73ffffffffffffffffffffffffffffffffffffffff8086166000908152603a60209081526040808320938a168352929052205561100b86612a26565b61101485612a26565b81156111b05773ffffffffffffffffffffffffffffffffffffffff84163014156111085760008573ffffffffffffffffffffffffffffffffffffffff168460405160006040518083038185875af1925050503d8060008114611092576040519150601f19603f3d011682016040523d82523d6000602084013e611097565b606091505b5050905080611102576040517f08c379a000000000000000000000000000000000000000000000000000000000815260206004820152600e60248201527f7061796d656e74206661696c6564000000000000000000000000000000000000604482015260640161058a565b50611222565b6040517fa9059cbb00000000000000000000000000000000000000000000000000000000815273ffffffffffffffffffffffffffffffffffffffff86811660048301526024820185905285169063a9059cbb90604401602060405180830381600087803b15801561117857600080fd5b505af115801561118c573d6000803e3d6000fd5b505050506040513d601f19601f820116820180604052508101906111029190612e13565b73ffffffffffffffffffffffffffffffffffffffff8085166000908152603960209081526040808320938916835292905220546111ee908490612eda565b73ffffffffffffffffffffffffffffffffffffffff8086166000908152603960209081526040808320938a16835292905220555b6040805173ffffffffffffffffffffffffffffffffffffffff86811682526020820186905263ffffffff421692820192909252818716913391908916907f6b6ecc88585593ff000541ff011b680d6bff9116fec1e0479aedf01448614998906060015b60405180910390a450600161129960018055565b95945050505050565b60006112ac61263b565b60355473ffffffffffffffffffffffffffffffffffffffff16331461132d576040517f08c379a000000000000000000000000000000000000000000000000000000000815260206004820152600e60248201527f6f6e6c7920666f72206a75646765000000000000000000000000000000000000604482015260640161058a565b6034547501000000000000000000000000000000000000000000900460ff16156113b757603480547fffffffffffffffffffff00ffffffffffffffffffffffffffffffffffffffffff16905560405163ffffffff421681527f9fd67bd682613b07687b42f99d8b24402d09feabb75df93abdb26b8fcf9845839060200160405180910390a1611431565b603480547fffffffffffffffffffff00ffffffffffffffffffffffffffffffffffffffffff1675010000000000000000000000000000000000000000001790556040514263ffffffff1681527ff6cf9095f1dcea2429c26c832cbcc084fa0a1692b2c301601edd75b9d83520b29060200160405180910390a15b50603454600180557501000000000000000000000000000000000000000000900460ff1690565b6036818154811061146857600080fd5b60009182526020909120015473ffffffffffffffffffffffffffffffffffffffff16905081565b606060368054806020026020016040519081016040528092919081815260200182805480156114f457602002820191906000526020600020905b815473ffffffffffffffffffffffffffffffffffffffff1681526001909101906020018083116114c9575b5050505050905090565b600054610100900460ff161580801561151e5750600054600160ff909116105b806115385750303b158015611538575060005460ff166001145b6115c4576040517f08c379a000000000000000000000000000000000000000000000000000000000815260206004820152602e60248201527f496e697469616c697a61626c653a20636f6e747261637420697320616c72656160448201527f647920696e697469616c697a6564000000000000000000000000000000000000606482015260840161058a565b600080547fffffffffffffffffffffffffffffffffffffffffffffffffffffffffffffff00166001179055801561162257600080547fffffffffffffffffffffffffffffffffffffffffffffffffffffffffffff00ff166101001790555b6002845110156116b4576040517f08c379a000000000000000000000000000000000000000000000000000000000815260206004820152602260248201527f6174206c656173742074776f207061727469636970616e74732072657175697260448201527f6564000000000000000000000000000000000000000000000000000000000000606482015260840161058a565b603480547fffffffffffffffffffffffff0000000000000000000000000000000000000000163317905560005b8451811015611829576000858281518110611725577f4e487b7100000000000000000000000000000000000000000000000000000000600052603260045260246000fd5b602002602001015190508473ffffffffffffffffffffffffffffffffffffffff168173ffffffffffffffffffffffffffffffffffffffff1614158015611780575073ffffffffffffffffffffffffffffffffffffffff811615155b80156117a7575060345473ffffffffffffffffffffffffffffffffffffffff828116911614155b61180d576040517f08c379a000000000000000000000000000000000000000000000000000000000815260206004820152601960248201527f636f7272757074207061727469636970616e7420666f756e6400000000000000604482015260640161058a565b61181681612a26565b508061182181612f7f565b9150506116e1565b506035805473ffffffffffffffffffffffffffffffffffffffff8086167fffffffffffffffffffffffff00000000000000000000000000000000000000009092169190911790915560348054841515760100000000000000000000000000000000000000000000027fffffffffffffffffff0000ffffffffffffffffffffffffffffffffffffffffff82168117909255604080517fc5f956af0000000000000000000000000000000000000000000000000000000081529051928416919093161791829163c5f956af91600480820192602092909190829003018186803b15801561191357600080fd5b505afa158015611927573d6000803e3d6000fd5b505050506040513d601f19601f8201168201806040525081019061194b9190612be6565b603360006101000a81548173ffffffffffffffffffffffffffffffffffffffff021916908373ffffffffffffffffffffffffffffffffffffffff1602179055508073ffffffffffffffffffffffffffffffffffffffff166348b686706040518163ffffffff1660e01b815260040160206040518083038186803b1580156119d157600080fd5b505afa1580156119e5573d6000803e3d6000fd5b505050506040513d601f19601f82011682018060405250810190611a099190612e5f565b603460146101000a81548160ff021916908360ff160217905550508015611a8757600080547fffffffffffffffffffffffffffffffffffffffffffffffffffffffffffff00ff169055604051600181527f7f26b83ff96e1f2b6a682f133852f6798a09c465da95921460cefb38474024989060200160405180910390a15b50505050565b6000611a9761263b565b6034547501000000000000000000000000000000000000000000900460ff1615611b1d576040517f08c379a000000000000000000000000000000000000000000000000000000000815260206004820152600e60248201527f657363726f7720667265657a6564000000000000000000000000000000000000604482015260640161058a565b60355473ffffffffffffffffffffffffffffffffffffffff163314611b9e576040517f08c379a000000000000000000000000000000000000000000000000000000000815260206004820152600e60248201527f6f6e6c7920666f72206a75646765000000000000000000000000000000000000604482015260640161058a565b603454760100000000000000000000000000000000000000000000900460ff1615611c2957603480547fffffffffffffffffff00ffffffffffffffffffffffffffffffffffffffffffff16905560405163ffffffff421681527fcce443c415206bfb32c20aebcc1ce6b1fa067c4e3ae0796d90a7ee573a1c73329060200160405180910390a1611ca4565b603480547fffffffffffffffffff00ffffffffffffffffffffffffffffffffffffffffffff167601000000000000000000000000000000000000000000001790556040514263ffffffff1681527ff0246618ee24bce8a55919c4c699a34a59905fb327819d80515221a597db91da9060200160405180910390a15b5060345460018055760100000000000000000000000000000000000000000000900460ff1690565b6000611cd661263b565b6034547501000000000000000000000000000000000000000000900460ff1615611d5c576040517f08c379a000000000000000000000000000000000000000000000000000000000815260206004820152600e60248201527f657363726f7720667265657a6564000000000000000000000000000000000000604482015260640161058a565b3373ffffffffffffffffffffffffffffffffffffffff861614801590611dae57508573ffffffffffffffffffffffffffffffffffffffff168573ffffffffffffffffffffffffffffffffffffffff1614155b8015611df057503373ffffffffffffffffffffffffffffffffffffffff87161480611df0575060355473ffffffffffffffffffffffffffffffffffffffff1633145b611e56576040517f08c379a000000000000000000000000000000000000000000000000000000000815260206004820152601360248201527f756e617574686f72697a656420726566756e6400000000000000000000000000604482015260640161058a565b73ffffffffffffffffffffffffffffffffffffffff8085166000908152603a60209081526040808320938a1683529290522054831115611ef2576040517f08c379a000000000000000000000000000000000000000000000000000000000815260206004820152601f60248201527f696e73756666696369656e7420726566756e6461626c652062616c616e636500604482015260640161058a565b73ffffffffffffffffffffffffffffffffffffffff808516600090815260386020908152604080832093891683529290522054831115611f8e576040517f08c379a000000000000000000000000000000000000000000000000000000000815260206004820152601c60248201527f756e646573657276696e6720726566756e6420726563697069656e7400000000604482015260640161058a565b73ffffffffffffffffffffffffffffffffffffffff808516600090815260386020908152604080832093891683529290522054611fcc908490612f68565b73ffffffffffffffffffffffffffffffffffffffff80861660008181526038602090815260408083208b86168452825280832095909555918152603a8252838120928a1681529190522054612022908490612f68565b73ffffffffffffffffffffffffffffffffffffffff8086166000908152603a60209081526040808320938b168352929052205581156121f15773ffffffffffffffffffffffffffffffffffffffff84163014156121495760008573ffffffffffffffffffffffffffffffffffffffff168460405160006040518083038185875af1925050503d80600081146120d3576040519150601f19603f3d011682016040523d82523d6000602084013e6120d8565b606091505b5050905080612143576040517f08c379a000000000000000000000000000000000000000000000000000000000815260206004820152600d60248201527f726566756e64206661696c656400000000000000000000000000000000000000604482015260640161058a565b50612263565b6040517fa9059cbb00000000000000000000000000000000000000000000000000000000815273ffffffffffffffffffffffffffffffffffffffff86811660048301526024820185905285169063a9059cbb90604401602060405180830381600087803b1580156121b957600080fd5b505af11580156121cd573d6000803e3d6000fd5b505050506040513d601f19601f820116820180604052508101906121439190612e13565b73ffffffffffffffffffffffffffffffffffffffff80851660009081526039602090815260408083209389168352929052205461222f908490612eda565b73ffffffffffffffffffffffffffffffffffffffff8086166000908152603960209081526040808320938a16835292905220555b6040805173ffffffffffffffffffffffffffffffffffffffff86811682526020820186905263ffffffff421692820192909252818716913391908916907fd50b9cbfe62cc5d213bc5843e8c7c958788b89e021fdc3a2b9266b4a41643f2c90606001611285565b60006122d461263b565b6034547501000000000000000000000000000000000000000000900460ff161561235a576040517f08c379a000000000000000000000000000000000000000000000000000000000815260206004820152600e60248201527f657363726f7720667265657a6564000000000000000000000000000000000000604482015260640161058a565b73ffffffffffffffffffffffffffffffffffffffff831660009081526039602090815260408083203384529091529020548211156123f4576040517f08c379a000000000000000000000000000000000000000000000000000000000815260206004820152601460248201527f696e73756666696369656e742062616c616e6365000000000000000000000000604482015260640161058a565b73ffffffffffffffffffffffffffffffffffffffff83166000908152603960209081526040808320338452909152902054612430908390612f68565b73ffffffffffffffffffffffffffffffffffffffff8416600081815260396020908152604080832033845290915290209190915530141561252357604051600090339084908381818185875af1925050503d80600081146124ad576040519150601f19603f3d011682016040523d82523d6000602084013e6124b2565b606091505b505090508061251d576040517f08c379a000000000000000000000000000000000000000000000000000000000815260206004820152600f60248201527f7769746864726177206661696c65640000000000000000000000000000000000604482015260640161058a565b506125cb565b6040517fa9059cbb0000000000000000000000000000000000000000000000000000000081523360048201526024810183905273ffffffffffffffffffffffffffffffffffffffff84169063a9059cbb90604401602060405180830381600087803b15801561259157600080fd5b505af11580156125a5573d6000803e3d6000fd5b505050506040513d601f19601f820116820180604052508101906125c99190612e13565b505b6040805173ffffffffffffffffffffffffffffffffffffffff85168152602081018490524263ffffffff1681830152905133917f5a7d5aeca9a5573493b0a9f7936da64ae09db093db54e8043e746ddf63795d05919081900360600190a250600161263560018055565b92915050565b600260015414156126a8576040517f08c379a000000000000000000000000000000000000000000000000000000000815260206004820152601f60248201527f5265656e7472616e637947756172643a207265656e7472616e742063616c6c00604482015260640161058a565b6002600155565b6126b833612a26565b73ffffffffffffffffffffffffffffffffffffffff821660009081526038602090815260408083203384529091529020546126f4908290612eda565b73ffffffffffffffffffffffffffffffffffffffff80841660009081526038602090815260408083203384529091528120929092558416612845573373ffffffffffffffffffffffffffffffffffffffff166036600081548110612781577f4e487b7100000000000000000000000000000000000000000000000000000000600052603260045260246000fd5b60009182526020909120015473ffffffffffffffffffffffffffffffffffffffff161461280a5760366000815481106127e3577f4e487b7100000000000000000000000000000000000000000000000000000000600052603260045260246000fd5b60009182526020909120015473ffffffffffffffffffffffffffffffffffffffff16612847565b60366001815481106127e3577f4e487b7100000000000000000000000000000000000000000000000000000000600052603260045260246000fd5b835b603654909150600214156128cb5773ffffffffffffffffffffffffffffffffffffffff8084166000908152603a6020908152604080832093851683529290522054612893908390612eda565b73ffffffffffffffffffffffffffffffffffffffff8085166000908152603a60209081526040808320938616835292905220556129c3565b73ffffffffffffffffffffffffffffffffffffffff8416612948576040517f08c379a000000000000000000000000000000000000000000000000000000000815260206004820152601960248201527f62656e6566696369617279206e6f742073706563696669656400000000000000604482015260640161058a565b61295184612a26565b73ffffffffffffffffffffffffffffffffffffffff8084166000908152603a602090815260408083209385168352929052205461298f908390612eda565b73ffffffffffffffffffffffffffffffffffffffff8085166000908152603a60209081526040808320938616835292905220555b6040805183815263ffffffff4216602082015273ffffffffffffffffffffffffffffffffffffffff808616929084169133917f7b90eca94d71dad0d19053912d9c3e868ee537e3b3b8bbd6a9957609c9a6ca58910160405180910390a450505050565b73ffffffffffffffffffffffffffffffffffffffff811660009081526037602052604090205460ff161515600114801590612a7c575060355473ffffffffffffffffffffffffffffffffffffffff828116911614155b8015612a9d575073ffffffffffffffffffffffffffffffffffffffff811615155b8015612ac4575060345473ffffffffffffffffffffffffffffffffffffffff828116911614155b15612bac576036805460018082019092557f4a11f94e20a93c79f6ec743a1954ec4fc2c08429ae2122118bf234b2185c81b80180547fffffffffffffffffffffffff00000000000000000000000000000000000000001673ffffffffffffffffffffffffffffffffffffffff841690811790915560008181526037602090815260409182902080547fffffffffffffffffffffffffffffffffffffffffffffffffffffffffffffff00169094179093555163ffffffff4216815290917feb4a12799419aee71ec81ef3c097b4eb5a58e55b6812ccd985f7d44fa6e9849e910160405180910390a25b50565b8035612bba81613016565b919050565b8035612bba81613038565b600060208284031215612bdb578081fd5b8135610c7281613016565b600060208284031215612bf7578081fd5b8151610c7281613016565b60008060408385031215612c14578081fd5b8235612c1f81613016565b91506020830135612c2f81613016565b809150509250929050565b600080600080600060a08688031215612c51578081fd5b8535612c5c81613016565b94506020860135612c6c81613016565b93506040860135612c7c81613016565b9250606086013591506080860135612c9381613038565b809150509295509295909350565b600080600060608486031215612cb5578283fd5b8335612cc081613016565b92506020840135612cd081613016565b929592945050506040919091013590565b60008060408385031215612cf3578182fd5b8235612cfe81613016565b946020939093013593505050565b600080600060608486031215612d20578283fd5b833567ffffffffffffffff80821115612d37578485fd5b818601915086601f830112612d4a578485fd5b8135602082821115612d5e57612d5e612fe7565b8160051b6040517fffffffffffffffffffffffffffffffffffffffffffffffffffffffffffffffe0603f83011681018181108682111715612da157612da1612fe7565b604052838152828101945085830182870184018c1015612dbf57898afd5b8996505b84871015612de857612dd481612baf565b865260019690960195948301948301612dc3565b509750612df89050888201612baf565b955050505050612e0a60408501612bbf565b90509250925092565b600060208284031215612e24578081fd5b8151610c7281613038565b600060208284031215612e40578081fd5b5035919050565b600060208284031215612e58578081fd5b5051919050565b600060208284031215612e70578081fd5b815160ff81168114610c72578182fd5b6020808252825182820181905260009190848201906040850190845b81811015612ece57835173ffffffffffffffffffffffffffffffffffffffff1683529284019291840191600101612e9c565b50909695505050505050565b60008219821115612eed57612eed612fb8565b500190565b600082612f26577f4e487b710000000000000000000000000000000000000000000000000000000081526012600452602481fd5b500490565b6000817fffffffffffffffffffffffffffffffffffffffffffffffffffffffffffffffff0483118215151615612f6357612f63612fb8565b500290565b600082821015612f7a57612f7a612fb8565b500390565b60007fffffffffffffffffffffffffffffffffffffffffffffffffffffffffffffffff821415612fb157612fb1612fb8565b5060010190565b7f4e487b7100000000000000000000000000000000000000000000000000000000600052601160045260246000fd5b7f4e487b7100000000000000000000000000000000000000000000000000000000600052604160045260246000fd5b73ffffffffffffffffffffffffffffffffffffffff81168114612bac57600080fd5b8015158114612bac57600080fdfea2646970667358221220da54ad3b3022f43dd11fc6571cd0f6bbe5283752f4e1b41d0854e5755460280064736f6c63430008040033",
  "devdoc": {
    "author": "hey@kumareth.com",
    "kind": "dev",
    "methods": {
      "approve(address,address,address,uint256,bool)": {
        "params": {
          "_amount": "The amount of tokens to be approved",
          "_attemptPayment": "A boolean that determines if the `_to` participant should be paid immediately",
          "_from": "The address of the participant from whom the tokens is to be approved",
          "_to": "The address of the participant to whom the tokens is to be approved",
          "_token": "The address of the ERC20 smart contract of the token to be approved"
        },
        "returns": {
          "_success": "A boolean that determines if the approval was successful."
        }
      },
      "deposit(address,address,uint256)": {
        "params": {
          "_amount": "The amount of tokens to be deposited",
          "_to": "The address of the participant to whom the tokens is to be deposited",
          "_token": "The address of the ERC20 smart contract of the token to be deposited"
        },
        "returns": {
          "_success": "A boolean that determines if the deposit was successful"
        }
      },
      "getBalance()": {
        "returns": {
          "_balance": "The tokens balance of the Escrow Wallet"
        }
      },
      "getParticipants()": {
        "returns": {
          "_participants": "All the participants in the Escrow Wallet."
        }
      },
      "initialize(address[],address,bool)": {
        "params": {
          "_blockNewParticipants": "A boolean that determines if new participants can be added to the Escrow Wallet",
          "_judge": "The address of the judge of the Escrow Wallet",
          "_participants": "The array of addresses that will be the participants in the Escrow Wallet"
        }
      },
      "refund(address,address,address,uint256,bool)": {
        "params": {
          "_amount": "The amount of tokens to be refunded",
          "_attemptPayment": "A boolean that determines if the `_to` participant should be paid immediately",
          "_from": "The address of the participant from whom the tokens is to be refunded",
          "_to": "The address of the participant to whom the tokens is to be refunded",
          "_token": "The address of the ERC20 smart contract of the token to be refunded"
        },
        "returns": {
          "_success": "A boolean that determines if the approval was successful."
        }
      },
      "toggleFreeze()": {
        "returns": {
          "_isFreezed": "A boolean that determines if the contract is freezed."
        }
      },
      "toggleParticipantBlock()": {
        "returns": {
          "_blockNewParticipants": "A boolean that determines if new participants can join the escrow."
        }
      },
      "totalParticipants()": {
        "returns": {
          "_totalParticipants": "Number of participants in the Escrow Wallet."
        }
      },
      "withdraw(address,uint256)": {
        "params": {
          "_amount": "The amount of tokens to be withdrawn",
          "_token": "The address of the ERC20 smart contract of the token to be withdrawn"
        },
        "returns": {
          "_success": "A boolean that determines if the approval was successful."
        }
      }
    },
    "title": "The Escrow Contract",
    "version": 1
  },
  "userdoc": {
    "kind": "user",
    "methods": {
      "approve(address,address,address,uint256,bool)": {
        "notice": "For the buyer to approve the funds they sent into the contract, for the other party (usually the seller) to withdraw."
      },
      "deposit(address,address,uint256)": {
        "notice": "Deposit tokens to the Escrow Wallet"
      },
      "getBalance()": {
        "notice": "Get the tokens balance of the Escrow Wallet"
      },
      "getParticipants()": {
        "notice": "Get an array of all the participants in the Escrow Wallet"
      },
      "initialize(address[],address,bool)": {
        "notice": "Constructor function for the Escrow Contract Instances"
      },
      "refund(address,address,address,uint256,bool)": {
        "notice": "For the buyer to approve the funds they sent into the contract, for the other party (usually the seller) to withdraw."
      },
      "toggleFreeze()": {
        "notice": "This function can be called by the judge to freeze the contract deposits, withdrawals, approvals and refunds."
      },
      "toggleParticipantBlock()": {
        "notice": "This function can be called by the judge to block new participants from joining the escrow."
      },
      "totalParticipants()": {
        "notice": "Get number of participants in the Escrow Wallet"
      },
      "withdraw(address,uint256)": {
        "notice": "Withdraw your balance from the Escrow Contract"
      }
    },
    "notice": "Contract that holds the funds of the participants and releases them when the conditions are met",
    "version": 1
  },
  "storageLayout": {
    "storage": [
      {
        "astId": 6,
        "contract": "contracts/Escrow.sol:Escrow",
        "label": "_initialized",
        "offset": 0,
        "slot": "0",
        "type": "t_uint8"
      },
      {
        "astId": 9,
        "contract": "contracts/Escrow.sol:Escrow",
        "label": "_initializing",
        "offset": 1,
        "slot": "0",
        "type": "t_bool"
      },
      {
        "astId": 182,
        "contract": "contracts/Escrow.sol:Escrow",
        "label": "_status",
        "offset": 0,
        "slot": "1",
        "type": "t_uint256"
      },
      {
        "astId": 240,
        "contract": "contracts/Escrow.sol:Escrow",
        "label": "__gap",
        "offset": 0,
        "slot": "2",
        "type": "t_array(t_uint256)49_storage"
      },
      {
        "astId": 3872,
        "contract": "contracts/Escrow.sol:Escrow",
        "label": "treasuryAddress",
        "offset": 0,
        "slot": "51",
        "type": "t_address"
      },
      {
        "astId": 3874,
        "contract": "contracts/Escrow.sol:Escrow",
        "label": "mainContractAddress",
        "offset": 0,
        "slot": "52",
        "type": "t_address"
      },
      {
        "astId": 3876,
        "contract": "contracts/Escrow.sol:Escrow",
        "label": "feesPermyriad",
        "offset": 20,
        "slot": "52",
        "type": "t_uint8"
      },
      {
        "astId": 3882,
        "contract": "contracts/Escrow.sol:Escrow",
        "label": "isFreezed",
        "offset": 21,
        "slot": "52",
        "type": "t_bool"
      },
      {
        "astId": 3884,
        "contract": "contracts/Escrow.sol:Escrow",
        "label": "blockNewParticipants",
        "offset": 22,
        "slot": "52",
        "type": "t_bool"
      },
      {
        "astId": 3886,
        "contract": "contracts/Escrow.sol:Escrow",
        "label": "judge",
        "offset": 0,
        "slot": "53",
        "type": "t_address"
      },
      {
        "astId": 3889,
        "contract": "contracts/Escrow.sol:Escrow",
        "label": "participants",
        "offset": 0,
        "slot": "54",
        "type": "t_array(t_address)dyn_storage"
      },
      {
        "astId": 3893,
        "contract": "contracts/Escrow.sol:Escrow",
        "label": "participantExists",
        "offset": 0,
        "slot": "55",
        "type": "t_mapping(t_address,t_bool)"
      },
      {
        "astId": 3919,
        "contract": "contracts/Escrow.sol:Escrow",
        "label": "getEscrowRemainingInput",
        "offset": 0,
        "slot": "56",
        "type": "t_mapping(t_address,t_mapping(t_address,t_uint256))"
      },
      {
        "astId": 3925,
        "contract": "contracts/Escrow.sol:Escrow",
        "label": "getWithdrawableBalance",
        "offset": 0,
        "slot": "57",
        "type": "t_mapping(t_address,t_mapping(t_address,t_uint256))"
      },
      {
        "astId": 3931,
        "contract": "contracts/Escrow.sol:Escrow",
        "label": "getRefundableBalance",
        "offset": 0,
        "slot": "58",
        "type": "t_mapping(t_address,t_mapping(t_address,t_uint256))"
      }
    ],
    "types": {
      "t_address": {
        "encoding": "inplace",
        "label": "address",
        "numberOfBytes": "20"
      },
      "t_array(t_address)dyn_storage": {
        "base": "t_address",
        "encoding": "dynamic_array",
        "label": "address[]",
        "numberOfBytes": "32"
      },
      "t_array(t_uint256)49_storage": {
        "base": "t_uint256",
        "encoding": "inplace",
        "label": "uint256[49]",
        "numberOfBytes": "1568"
      },
      "t_bool": {
        "encoding": "inplace",
        "label": "bool",
        "numberOfBytes": "1"
      },
      "t_mapping(t_address,t_bool)": {
        "encoding": "mapping",
        "key": "t_address",
        "label": "mapping(address => bool)",
        "numberOfBytes": "32",
        "value": "t_bool"
      },
      "t_mapping(t_address,t_mapping(t_address,t_uint256))": {
        "encoding": "mapping",
        "key": "t_address",
        "label": "mapping(address => mapping(address => uint256))",
        "numberOfBytes": "32",
        "value": "t_mapping(t_address,t_uint256)"
      },
      "t_mapping(t_address,t_uint256)": {
        "encoding": "mapping",
        "key": "t_address",
        "label": "mapping(address => uint256)",
        "numberOfBytes": "32",
        "value": "t_uint256"
      },
      "t_uint256": {
        "encoding": "inplace",
        "label": "uint256",
        "numberOfBytes": "32"
      },
      "t_uint8": {
        "encoding": "inplace",
        "label": "uint8",
        "numberOfBytes": "1"
      }
    }
  }
}