{
  "address": "0xB11471C92665Ae1EFD4b67aE1533Ac342BF03c5C",
  "abi": [
    {
      "inputs": [
        {
          "internalType": "string",
          "name": "name_",
          "type": "string"
        },
        {
          "internalType": "string",
          "name": "symbol_",
          "type": "string"
        },
        {
          "internalType": "address[]",
          "name": "initialAddresses_",
          "type": "address[]"
        },
        {
          "internalType": "string",
          "name": "contractURI_",
          "type": "string"
        }
      ],
      "stateMutability": "payable",
      "type": "constructor"
    },
    {
      "anonymous": false,
      "inputs": [
        {
          "indexed": true,
          "internalType": "address",
          "name": "owner",
          "type": "address"
        },
        {
          "indexed": true,
          "internalType": "address",
          "name": "approved",
          "type": "address"
        },
        {
          "indexed": true,
          "internalType": "uint256",
          "name": "tokenId",
          "type": "uint256"
        }
      ],
      "name": "Approval",
      "type": "event"
    },
    {
      "anonymous": false,
      "inputs": [
        {
          "indexed": true,
          "internalType": "address",
          "name": "owner",
          "type": "address"
        },
        {
          "indexed": true,
          "internalType": "address",
          "name": "operator",
          "type": "address"
        },
        {
          "indexed": false,
          "internalType": "bool",
          "name": "approved",
          "type": "bool"
        }
      ],
      "name": "ApprovalForAll",
      "type": "event"
    },
    {
      "anonymous": false,
      "inputs": [
        {
          "indexed": true,
          "internalType": "address",
          "name": "hash",
          "type": "address"
        },
        {
          "indexed": true,
          "internalType": "address",
          "name": "creator",
          "type": "address"
        },
        {
          "indexed": true,
          "internalType": "address",
          "name": "judge",
          "type": "address"
        },
        {
          "indexed": false,
          "internalType": "address[]",
          "name": "intendedSignatories",
          "type": "address[]"
        },
        {
          "indexed": false,
          "internalType": "uint32",
          "name": "createdAt",
          "type": "uint32"
        }
      ],
      "name": "CreateContract",
      "type": "event"
    },
    {
      "anonymous": false,
      "inputs": [
        {
          "indexed": true,
          "internalType": "address",
          "name": "actionCalledBy",
          "type": "address"
        },
        {
          "indexed": true,
          "internalType": "address",
          "name": "beneficiary",
          "type": "address"
        },
        {
          "indexed": true,
          "internalType": "address",
          "name": "erc20Token",
          "type": "address"
        },
        {
          "indexed": false,
          "internalType": "uint256",
          "name": "tokenAmount",
          "type": "uint256"
        },
        {
          "indexed": false,
          "internalType": "uint256",
          "name": "timestamp",
          "type": "uint256"
        }
      ],
      "name": "ERC20SentToBeneficiary",
      "type": "event"
    },
    {
      "anonymous": false,
      "inputs": [
        {
          "indexed": true,
          "internalType": "address",
          "name": "actionCalledBy",
          "type": "address"
        },
        {
          "indexed": true,
          "internalType": "address",
          "name": "beneficiary",
          "type": "address"
        },
        {
          "indexed": true,
          "internalType": "address",
          "name": "erc721ContractAddress",
          "type": "address"
        },
        {
          "indexed": false,
          "internalType": "uint256",
          "name": "tokenId",
          "type": "uint256"
        },
        {
          "indexed": false,
          "internalType": "uint256",
          "name": "timestamp",
          "type": "uint256"
        }
      ],
      "name": "ERC721SentToBeneficiary",
      "type": "event"
    },
    {
      "anonymous": false,
      "inputs": [
        {
          "indexed": true,
          "internalType": "address",
          "name": "hash",
          "type": "address"
        },
        {
          "indexed": true,
          "internalType": "address",
          "name": "creator",
          "type": "address"
        },
        {
          "indexed": false,
          "internalType": "uint32",
          "name": "timestamp",
          "type": "uint32"
        }
      ],
      "name": "NewEscrow",
      "type": "event"
    },
    {
      "anonymous": false,
      "inputs": [
        {
          "indexed": true,
          "internalType": "address",
          "name": "previousOwner",
          "type": "address"
        },
        {
          "indexed": true,
          "internalType": "address",
          "name": "newOwner",
          "type": "address"
        }
      ],
      "name": "OwnershipTransferred",
      "type": "event"
    },
    {
      "anonymous": false,
      "inputs": [
        {
          "indexed": true,
          "internalType": "address",
          "name": "by",
          "type": "address"
        },
        {
          "indexed": false,
          "internalType": "uint256",
          "name": "fundsInwei",
          "type": "uint256"
        },
        {
          "indexed": false,
          "internalType": "uint256",
          "name": "timestamp",
          "type": "uint256"
        }
      ],
      "name": "ReceivedFunds",
      "type": "event"
    },
    {
      "anonymous": false,
      "inputs": [
        {
          "indexed": true,
          "internalType": "address",
          "name": "actionCalledBy",
          "type": "address"
        },
        {
          "indexed": true,
          "internalType": "address",
          "name": "beneficiary",
          "type": "address"
        },
        {
          "indexed": false,
          "internalType": "uint256",
          "name": "fundsInwei",
          "type": "uint256"
        },
        {
          "indexed": false,
          "internalType": "uint256",
          "name": "timestamp",
          "type": "uint256"
        }
      ],
      "name": "SentToBeneficiary",
      "type": "event"
    },
    {
      "anonymous": false,
      "inputs": [
        {
          "indexed": true,
          "internalType": "address",
          "name": "hash",
          "type": "address"
        },
        {
          "indexed": true,
          "internalType": "address",
          "name": "signer",
          "type": "address"
        },
        {
          "indexed": true,
          "internalType": "string",
          "name": "contractURI",
          "type": "string"
        },
        {
          "indexed": false,
          "internalType": "uint32",
          "name": "signedAt",
          "type": "uint32"
        }
      ],
      "name": "SignContract",
      "type": "event"
    },
    {
      "anonymous": false,
      "inputs": [
        {
          "indexed": true,
          "internalType": "address",
          "name": "from",
          "type": "address"
        },
        {
          "indexed": true,
          "internalType": "address",
          "name": "to",
          "type": "address"
        },
        {
          "indexed": true,
          "internalType": "uint256",
          "name": "tokenId",
          "type": "uint256"
        }
      ],
      "name": "Transfer",
      "type": "event"
    },
    {
      "stateMutability": "payable",
      "type": "fallback"
    },
    {
      "inputs": [
        {
          "internalType": "uint256",
          "name": "",
          "type": "uint256"
        }
      ],
      "name": "allEscrows",
      "outputs": [
        {
          "internalType": "address",
          "name": "",
          "type": "address"
        }
      ],
      "stateMutability": "view",
      "type": "function"
    },
    {
      "inputs": [
        {
          "internalType": "address",
          "name": "to",
          "type": "address"
        },
        {
          "internalType": "uint256",
          "name": "tokenId",
          "type": "uint256"
        }
      ],
      "name": "approve",
      "outputs": [],
      "stateMutability": "nonpayable",
      "type": "function"
    },
    {
      "inputs": [
        {
          "internalType": "address",
          "name": "owner",
          "type": "address"
        }
      ],
      "name": "balanceOf",
      "outputs": [
        {
          "internalType": "uint256",
          "name": "",
          "type": "uint256"
        }
      ],
      "stateMutability": "view",
      "type": "function"
    },
    {
      "inputs": [],
      "name": "baseURI",
      "outputs": [
        {
          "internalType": "string",
          "name": "",
          "type": "string"
        }
      ],
      "stateMutability": "view",
      "type": "function"
    },
    {
      "inputs": [
        {
          "internalType": "string",
          "name": "baseURI_",
          "type": "string"
        }
      ],
      "name": "changeBaseURI",
      "outputs": [
        {
          "internalType": "string",
          "name": "",
          "type": "string"
        }
      ],
      "stateMutability": "nonpayable",
      "type": "function"
    },
    {
      "inputs": [
        {
          "internalType": "string",
          "name": "contractURI_",
          "type": "string"
        }
      ],
      "name": "changeContractURI",
      "outputs": [
        {
          "internalType": "string",
          "name": "",
          "type": "string"
        }
      ],
      "stateMutability": "nonpayable",
      "type": "function"
    },
    {
      "inputs": [
        {
          "internalType": "address",
          "name": "_escrowContractAddress",
          "type": "address"
        }
      ],
      "name": "changeEscrowContractAddress",
      "outputs": [
        {
          "internalType": "address",
          "name": "",
          "type": "address"
        }
      ],
      "stateMutability": "nonpayable",
      "type": "function"
    },
    {
      "inputs": [
        {
          "internalType": "uint8",
          "name": "_feesPermyriad",
          "type": "uint8"
        }
      ],
      "name": "changeFeesPermyriad",
      "outputs": [
        {
          "internalType": "bool",
          "name": "_success",
          "type": "bool"
        }
      ],
      "stateMutability": "nonpayable",
      "type": "function"
    },
    {
      "inputs": [
        {
          "internalType": "address",
          "name": "_treasuryAddress",
          "type": "address"
        }
      ],
      "name": "changeTreasuryAddress",
      "outputs": [
        {
          "internalType": "bool",
          "name": "_success",
          "type": "bool"
        }
      ],
      "stateMutability": "nonpayable",
      "type": "function"
    },
    {
      "inputs": [],
      "name": "contractURI",
      "outputs": [
        {
          "internalType": "string",
          "name": "",
          "type": "string"
        }
      ],
      "stateMutability": "view",
      "type": "function"
    },
    {
      "inputs": [
        {
          "internalType": "string",
          "name": "_contractURI",
          "type": "string"
        },
        {
          "internalType": "address[]",
          "name": "_intendedSignatories",
          "type": "address[]"
        },
        {
          "internalType": "address",
          "name": "_judge",
          "type": "address"
        }
      ],
      "name": "createContract",
      "outputs": [
        {
          "internalType": "uint256",
          "name": "_tokenId",
          "type": "uint256"
        },
        {
          "internalType": "address",
          "name": "_escrowWalletAddress",
          "type": "address"
        }
      ],
      "stateMutability": "payable",
      "type": "function"
    },
    {
      "inputs": [],
      "name": "escrowContractAddress",
      "outputs": [
        {
          "internalType": "address",
          "name": "",
          "type": "address"
        }
      ],
      "stateMutability": "view",
      "type": "function"
    },
    {
      "inputs": [
        {
          "internalType": "uint256",
          "name": "tokenId",
          "type": "uint256"
        }
      ],
      "name": "exists",
      "outputs": [
        {
          "internalType": "bool",
          "name": "",
          "type": "bool"
        }
      ],
      "stateMutability": "view",
      "type": "function"
    },
    {
      "inputs": [],
      "name": "feesPermyriad",
      "outputs": [
        {
          "internalType": "uint8",
          "name": "",
          "type": "uint8"
        }
      ],
      "stateMutability": "view",
      "type": "function"
    },
    {
      "inputs": [],
      "name": "fetchAllEscrows",
      "outputs": [
        {
          "internalType": "address[]",
          "name": "",
          "type": "address[]"
        }
      ],
      "stateMutability": "view",
      "type": "function"
    },
    {
      "inputs": [
        {
          "internalType": "address",
          "name": "_signerAddress",
          "type": "address"
        }
      ],
      "name": "fetchEscrowAddressesBySignerAddress",
      "outputs": [
        {
          "internalType": "address[]",
          "name": "_escrowAddressesBySignerAddress",
          "type": "address[]"
        }
      ],
      "stateMutability": "view",
      "type": "function"
    },
    {
      "inputs": [
        {
          "internalType": "address",
          "name": "_escrowAddress",
          "type": "address"
        }
      ],
      "name": "fetchTokenIdsByEscrowAddress",
      "outputs": [
        {
          "internalType": "uint256[]",
          "name": "_tokenIds",
          "type": "uint256[]"
        }
      ],
      "stateMutability": "view",
      "type": "function"
    },
    {
      "inputs": [],
      "name": "fund",
      "outputs": [],
      "stateMutability": "payable",
      "type": "function"
    },
    {
      "inputs": [
        {
          "internalType": "uint256",
          "name": "tokenId",
          "type": "uint256"
        }
      ],
      "name": "getApproved",
      "outputs": [
        {
          "internalType": "address",
          "name": "",
          "type": "address"
        }
      ],
      "stateMutability": "view",
      "type": "function"
    },
    {
      "inputs": [],
      "name": "getBalance",
      "outputs": [
        {
          "internalType": "uint256",
          "name": "",
          "type": "uint256"
        }
      ],
      "stateMutability": "view",
      "type": "function"
    },
    {
      "inputs": [
        {
          "internalType": "uint256",
          "name": "",
          "type": "uint256"
        }
      ],
      "name": "getContractSignerByTokenId",
      "outputs": [
        {
          "internalType": "address",
          "name": "",
          "type": "address"
        }
      ],
      "stateMutability": "view",
      "type": "function"
    },
    {
      "inputs": [
        {
          "internalType": "uint256",
          "name": "",
          "type": "uint256"
        }
      ],
      "name": "getEscrowAddressByTokenId",
      "outputs": [
        {
          "internalType": "address",
          "name": "",
          "type": "address"
        }
      ],
      "stateMutability": "view",
      "type": "function"
    },
    {
      "inputs": [
        {
          "internalType": "address",
          "name": "",
          "type": "address"
        },
        {
          "internalType": "uint256",
          "name": "",
          "type": "uint256"
        }
      ],
      "name": "getEscrowAddressesBySignerAddress",
      "outputs": [
        {
          "internalType": "address",
          "name": "",
          "type": "address"
        }
      ],
      "stateMutability": "view",
      "type": "function"
    },
    {
      "inputs": [
        {
          "internalType": "uint256",
          "name": "",
          "type": "uint256"
        }
      ],
      "name": "getRoyaltyInfoByTokenId",
      "outputs": [
        {
          "internalType": "address",
          "name": "receiver",
          "type": "address"
        },
        {
          "internalType": "uint256",
          "name": "percent",
          "type": "uint256"
        }
      ],
      "stateMutability": "view",
      "type": "function"
    },
    {
      "inputs": [
        {
          "internalType": "address",
          "name": "",
          "type": "address"
        },
        {
          "internalType": "uint256",
          "name": "",
          "type": "uint256"
        }
      ],
      "name": "getTokenIdsByEscrowAddress",
      "outputs": [
        {
          "internalType": "uint256",
          "name": "",
          "type": "uint256"
        }
      ],
      "stateMutability": "view",
      "type": "function"
    },
    {
      "inputs": [
        {
          "internalType": "address",
          "name": "",
          "type": "address"
        },
        {
          "internalType": "address",
          "name": "",
          "type": "address"
        }
      ],
      "name": "hasSignedContract",
      "outputs": [
        {
          "internalType": "bool",
          "name": "",
          "type": "bool"
        }
      ],
      "stateMutability": "view",
      "type": "function"
    },
    {
      "inputs": [
        {
          "internalType": "address",
          "name": "owner",
          "type": "address"
        },
        {
          "internalType": "address",
          "name": "operator",
          "type": "address"
        }
      ],
      "name": "isApprovedForAll",
      "outputs": [
        {
          "internalType": "bool",
          "name": "",
          "type": "bool"
        }
      ],
      "stateMutability": "view",
      "type": "function"
    },
    {
      "inputs": [],
      "name": "name",
      "outputs": [
        {
          "internalType": "string",
          "name": "",
          "type": "string"
        }
      ],
      "stateMutability": "view",
      "type": "function"
    },
    {
      "inputs": [],
      "name": "owner",
      "outputs": [
        {
          "internalType": "address",
          "name": "",
          "type": "address"
        }
      ],
      "stateMutability": "view",
      "type": "function"
    },
    {
      "inputs": [
        {
          "internalType": "uint256",
          "name": "tokenId",
          "type": "uint256"
        }
      ],
      "name": "ownerOf",
      "outputs": [
        {
          "internalType": "address",
          "name": "",
          "type": "address"
        }
      ],
      "stateMutability": "view",
      "type": "function"
    },
    {
      "inputs": [],
      "name": "renounceOwnership",
      "outputs": [],
      "stateMutability": "nonpayable",
      "type": "function"
    },
    {
      "inputs": [
        {
          "internalType": "uint256",
          "name": "_tokenID",
          "type": "uint256"
        },
        {
          "internalType": "uint256",
          "name": "_salePrice",
          "type": "uint256"
        }
      ],
      "name": "royaltyInfo",
      "outputs": [
        {
          "internalType": "address",
          "name": "receiver",
          "type": "address"
        },
        {
          "internalType": "uint256",
          "name": "royaltyAmount",
          "type": "uint256"
        }
      ],
      "stateMutability": "view",
      "type": "function"
    },
    {
      "inputs": [
        {
          "internalType": "address",
          "name": "from",
          "type": "address"
        },
        {
          "internalType": "address",
          "name": "to",
          "type": "address"
        },
        {
          "internalType": "uint256",
          "name": "tokenId",
          "type": "uint256"
        }
      ],
      "name": "safeTransferFrom",
      "outputs": [],
      "stateMutability": "nonpayable",
      "type": "function"
    },
    {
      "inputs": [
        {
          "internalType": "address",
          "name": "from",
          "type": "address"
        },
        {
          "internalType": "address",
          "name": "to",
          "type": "address"
        },
        {
          "internalType": "uint256",
          "name": "tokenId",
          "type": "uint256"
        },
        {
          "internalType": "bytes",
          "name": "data",
          "type": "bytes"
        }
      ],
      "name": "safeTransferFrom",
      "outputs": [],
      "stateMutability": "nonpayable",
      "type": "function"
    },
    {
      "inputs": [
        {
          "internalType": "address",
          "name": "_erc20address",
          "type": "address"
        },
        {
          "internalType": "uint256",
          "name": "_tokenAmount",
          "type": "uint256"
        }
      ],
      "name": "sendERC20ToBeneficiary",
      "outputs": [
        {
          "internalType": "bool",
          "name": "_success",
          "type": "bool"
        }
      ],
      "stateMutability": "nonpayable",
      "type": "function"
    },
    {
      "inputs": [
        {
          "internalType": "address",
          "name": "_erc721address",
          "type": "address"
        },
        {
          "internalType": "uint256",
          "name": "_tokenId",
          "type": "uint256"
        }
      ],
      "name": "sendERC721ToBeneficiary",
      "outputs": [
        {
          "internalType": "bool",
          "name": "_success",
          "type": "bool"
        }
      ],
      "stateMutability": "nonpayable",
      "type": "function"
    },
    {
      "inputs": [
        {
          "internalType": "uint256",
          "name": "_amountInWei",
          "type": "uint256"
        }
      ],
      "name": "sendToBeneficiary",
      "outputs": [
        {
          "internalType": "bool",
          "name": "_success",
          "type": "bool"
        }
      ],
      "stateMutability": "nonpayable",
      "type": "function"
    },
    {
      "inputs": [
        {
          "internalType": "address",
          "name": "operator",
          "type": "address"
        },
        {
          "internalType": "bool",
          "name": "approved",
          "type": "bool"
        }
      ],
      "name": "setApprovalForAll",
      "outputs": [],
      "stateMutability": "nonpayable",
      "type": "function"
    },
    {
      "inputs": [
        {
          "internalType": "address",
          "name": "_escrowWalletAddress",
          "type": "address"
        }
      ],
      "name": "signContract",
      "outputs": [
        {
          "internalType": "uint256",
          "name": "_tokenId",
          "type": "uint256"
        }
      ],
      "stateMutability": "payable",
      "type": "function"
    },
    {
      "inputs": [
        {
          "internalType": "bytes4",
          "name": "interfaceId",
          "type": "bytes4"
        }
      ],
      "name": "supportsInterface",
      "outputs": [
        {
          "internalType": "bool",
          "name": "",
          "type": "bool"
        }
      ],
      "stateMutability": "view",
      "type": "function"
    },
    {
      "inputs": [],
      "name": "symbol",
      "outputs": [
        {
          "internalType": "string",
          "name": "",
          "type": "string"
        }
      ],
      "stateMutability": "view",
      "type": "function"
    },
    {
      "inputs": [
        {
          "internalType": "uint256",
          "name": "index",
          "type": "uint256"
        }
      ],
      "name": "tokenByIndex",
      "outputs": [
        {
          "internalType": "uint256",
          "name": "",
          "type": "uint256"
        }
      ],
      "stateMutability": "view",
      "type": "function"
    },
    {
      "inputs": [
        {
          "internalType": "address",
          "name": "owner",
          "type": "address"
        },
        {
          "internalType": "uint256",
          "name": "index",
          "type": "uint256"
        }
      ],
      "name": "tokenOfOwnerByIndex",
      "outputs": [
        {
          "internalType": "uint256",
          "name": "",
          "type": "uint256"
        }
      ],
      "stateMutability": "view",
      "type": "function"
    },
    {
      "inputs": [
        {
          "internalType": "uint256",
          "name": "tokenId",
          "type": "uint256"
        }
      ],
      "name": "tokenURI",
      "outputs": [
        {
          "internalType": "string",
          "name": "",
          "type": "string"
        }
      ],
      "stateMutability": "view",
      "type": "function"
    },
    {
      "inputs": [],
      "name": "totalSupply",
      "outputs": [
        {
          "internalType": "uint256",
          "name": "",
          "type": "uint256"
        }
      ],
      "stateMutability": "view",
      "type": "function"
    },
    {
      "inputs": [],
      "name": "totalTokensMinted",
      "outputs": [
        {
          "internalType": "uint256",
          "name": "_value",
          "type": "uint256"
        }
      ],
      "stateMutability": "view",
      "type": "function"
    },
    {
      "inputs": [
        {
          "internalType": "address",
          "name": "from",
          "type": "address"
        },
        {
          "internalType": "address",
          "name": "to",
          "type": "address"
        },
        {
          "internalType": "uint256",
          "name": "tokenId",
          "type": "uint256"
        }
      ],
      "name": "transferFrom",
      "outputs": [],
      "stateMutability": "nonpayable",
      "type": "function"
    },
    {
      "inputs": [
        {
          "internalType": "address",
          "name": "newOwner",
          "type": "address"
        }
      ],
      "name": "transferOwnership",
      "outputs": [],
      "stateMutability": "nonpayable",
      "type": "function"
    },
    {
      "inputs": [],
      "name": "treasuryAddress",
      "outputs": [
        {
          "internalType": "address",
          "name": "",
          "type": "address"
        }
      ],
      "stateMutability": "view",
      "type": "function"
    },
    {
      "stateMutability": "payable",
      "type": "receive"
    }
  ],
  "transactionHash": "0xc668278f17e7cb15f5b53798652f37572eccf755d7c7704efe5353b69d61e859",
  "args": [
    "Judiciary",
    "CONTRACT",
    [
      "0xAf4e332DE0323Ad04fdaCe8e3E8FEC31FbAbB7F4",
      "0x37B55FFFbcABcAb694a2e1585792747c30865754",
      "0xAf4e332DE0323Ad04fdaCe8e3E8FEC31FbAbB7F4"
    ],
    "https://judiciary.app/contractURI.json"
  ],
  "numDeployments": 2,
  "solcInputHash": "cafde215a7ce4fadadfb2421812ba6ad",
  "bytecode": "0x60a06040819052600060808190526200001b91600b9162000a87565b506040805160208101918290526000908190526200003c91600c9162000a87565b506011805460ff60a01b191660ff60a01b1790556040516200478638819003908190833981016040819052620000729162000bc8565b816001815181106200009457634e487b7160e01b600052603260045260246000fd5b602002602001015184848382828160009080519060200190620000b992919062000a87565b508051620000cf90600190602084019062000a87565b505050620000ec620000e66200021960201b60201c565b6200021d565b80516200010190600c90602084019062000a87565b5050600e80546001600160a01b0319166001600160a01b039490941693909317909255505060016010558151620001669083906000906200015257634e487b7160e01b600052603260045260246000fd5b60200260200101516200021d60201b60201c565b816001815181106200018857634e487b7160e01b600052603260045260246000fd5b6020026020010151600e60006101000a8154816001600160a01b0302191690836001600160a01b0316021790555081600281518110620001d857634e487b7160e01b600052603260045260246000fd5b6020908102919091010151601180546001600160a01b0319166001600160a01b039092169190911790556200020f3360006200026f565b5050505062000e59565b3390565b600a80546001600160a01b038381166001600160a01b0319831681179093556040519116919082907f8be0079c531659141344cd1fd0a4f28419497f9722a3daafe3b4186f6b6457e090600090a35050565b620002918282604051806020016040528060008152506200029560201b60201c565b5050565b620002a1838362000311565b620002b06000848484620004b2565b6200030c5760405162461bcd60e51b815260206004820152603260248201526000805160206200476683398151915260448201527131b2b4bb32b91034b6b83632b6b2b73a32b960711b60648201526084015b60405180910390fd5b505050565b6001600160a01b038216620003695760405162461bcd60e51b815260206004820181905260248201527f4552433732313a206d696e7420746f20746865207a65726f2061646472657373604482015260640162000303565b6000818152600260205260409020546001600160a01b031615620003d05760405162461bcd60e51b815260206004820152601c60248201527f4552433732313a20746f6b656e20616c7265616479206d696e74656400000000604482015260640162000303565b620003e06000838360016200061b565b6000818152600260205260409020546001600160a01b031615620004475760405162461bcd60e51b815260206004820152601c60248201527f4552433732313a20746f6b656e20616c7265616479206d696e74656400000000604482015260640162000303565b6001600160a01b038216600081815260036020908152604080832080546001019055848352600290915280822080546001600160a01b0319168417905551839291907fddf252ad1be2c89b69c2b068fc378daa952ba7f163c4a11628f55a4df523b3ef908290a45050565b6000620004d3846001600160a01b03166200078560201b62001d6b1760201c565b156200060f57604051630a85bd0160e11b81526001600160a01b0385169063150b7a02906200050d90339089908890889060040162000d03565b602060405180830381600087803b1580156200052857600080fd5b505af19250505080156200055b575060408051601f3d908101601f19168201909252620005589181019062000b97565b60015b620005f4573d8080156200058c576040519150601f19603f3d011682016040523d82523d6000602084013e62000591565b606091505b508051620005ec5760405162461bcd60e51b815260206004820152603260248201526000805160206200476683398151915260448201527131b2b4bb32b91034b6b83632b6b2b73a32b960711b606482015260840162000303565b805181602001fd5b6001600160e01b031916630a85bd0160e11b14905062000613565b5060015b949350505050565b62000634848484846200079460201b62001d7a1760201c565b6001811115620006ad5760405162461bcd60e51b815260206004820152603560248201527f455243373231456e756d657261626c653a20636f6e736563757469766520747260448201527f616e7366657273206e6f7420737570706f727465640000000000000000000000606482015260840162000303565b816001600160a01b0385166200070c576200070681600880546000838152600960205260408120829055600182018355919091527ff3f7a9fe364faab93b216da50a3214154f22a0a2b415b23a84c8169e8b636ee30155565b62000732565b836001600160a01b0316856001600160a01b031614620007325762000732858262000823565b6001600160a01b03841662000752576200074c81620008d0565b62000778565b846001600160a01b0316846001600160a01b0316146200077857620007788482620009ae565b5050505050565b50505050565b6001600160a01b03163b151590565b60018111156200077f576001600160a01b03841615620007de576001600160a01b03841660009081526003602052604081208054839290620007d890849062000da7565b90915550505b6001600160a01b038316156200077f576001600160a01b038316600090815260036020526040812080548392906200081890849062000d8c565b909155505050505050565b600060016200083d84620009ff60201b620015c81760201c565b62000849919062000da7565b6000838152600760205260409020549091508082146200089d576001600160a01b03841660009081526006602090815260408083208584528252808320548484528184208190558352600790915290208190555b5060009182526007602090815260408084208490556001600160a01b039094168352600681528383209183525290812055565b600854600090620008e49060019062000da7565b600083815260096020526040812054600880549394509092849081106200091b57634e487b7160e01b600052603260045260246000fd5b9060005260206000200154905080600883815481106200094b57634e487b7160e01b600052603260045260246000fd5b60009182526020808320909101929092558281526009909152604080822084905585825281205560088054806200099257634e487b7160e01b600052603160045260246000fd5b6001900381819060005260206000200160009055905550505050565b6000620009c683620009ff60201b620015c81760201c565b6001600160a01b039093166000908152600660209081526040808320868452825280832085905593825260079052919091209190915550565b60006001600160a01b03821662000a6b5760405162461bcd60e51b815260206004820152602960248201527f4552433732313a2061646472657373207a65726f206973206e6f7420612076616044820152683634b21037bbb732b960b91b606482015260840162000303565b506001600160a01b031660009081526003602052604090205490565b82805462000a959062000df0565b90600052602060002090601f01602090048101928262000ab9576000855562000b04565b82601f1062000ad457805160ff191683800117855562000b04565b8280016001018555821562000b04579182015b8281111562000b0457825182559160200191906001019062000ae7565b5062000b1292915062000b16565b5090565b5b8082111562000b12576000815560010162000b17565b600082601f83011262000b3e578081fd5b81516001600160401b0381111562000b5a5762000b5a62000e43565b62000b6f601f8201601f191660200162000d59565b81815284602083860101111562000b84578283fd5b6200061382602083016020870162000dc1565b60006020828403121562000ba9578081fd5b81516001600160e01b03198116811462000bc1578182fd5b9392505050565b6000806000806080858703121562000bde578283fd5b84516001600160401b038082111562000bf5578485fd5b62000c038883890162000b2d565b955060209150818701518181111562000c1a578586fd5b62000c2889828a0162000b2d565b95505060408701518181111562000c3d578485fd5b8701601f8101891362000c4e578485fd5b80518281111562000c635762000c6362000e43565b8060051b62000c7485820162000d59565b8281528581019084870183860188018e101562000c8f57898afd5b8995505b8486101562000ccb57805193506001600160a01b038416841462000cb557898afd5b8383526001959095019491870191870162000c93565b508098505050505050606087015191508082111562000ce8578283fd5b5062000cf78782880162000b2d565b91505092959194509250565b600060018060a01b03808716835280861660208401525083604083015260806060830152825180608084015262000d428160a085016020870162000dc1565b601f01601f19169190910160a00195945050505050565b604051601f8201601f191681016001600160401b038111828210171562000d845762000d8462000e43565b604052919050565b6000821982111562000da25762000da262000e2d565b500190565b60008282101562000dbc5762000dbc62000e2d565b500390565b60005b8381101562000dde57818101518382015260200162000dc4565b838111156200077f5750506000910152565b600181811c9082168062000e0557607f821691505b6020821081141562000e2757634e487b7160e01b600052602260045260246000fd5b50919050565b634e487b7160e01b600052601160045260246000fd5b634e487b7160e01b600052604160045260246000fd5b6138fd8062000e696000396000f3fe6080604052600436106103225760003560e01c806370a08231116101a5578063b88d4fde116100ec578063d226ae0811610095578063e985e9c51161006f578063e985e9c51461099a578063ea71b0ce146109e3578063f2fde38b14610a03578063f5ac49a814610a2357610364565b8063d226ae081461092a578063e88786f21461094a578063e8a3d4851461098557610364565b8063c468ef8a116100c6578063c468ef8a146108ca578063c5f956af146108ea578063c87b56dd1461090a57610364565b8063b88d4fde14610854578063ba913e9a14610874578063c1140dcc1461089457610364565b80639d2f4e061161014e578063a6f353f011610128578063a6f353f0146107f6578063b60d428814610816578063b783a6c61461081e57610364565b80639d2f4e0614610796578063a22cb465146107b6578063a667cfbe146107d657610364565b80637d549e991161017f5780637d549e991461074c5780638da5cb5b1461076357806395d89b411461078157610364565b806370a0823114610704578063715018a61461072457806379e93bf81461073957610364565b806342842e0e116102695780635f2f1bea1161021257806367c3b1b9116101ec57806367c3b1b9146106af57806368f8fdd3146106cf5780636c0360eb146106ef57610364565b80635f2f1bea1461064d578063625c94b61461066f5780636352211e1461068f57610364565b80634f558e79116102435780634f558e79146105ed5780634f6ccce71461060d5780635699b9041461062d57610364565b806342842e0e1461056d57806348b686701461058d5780634e05847e146105c057610364565b80631d3afee6116102cb5780632a55205a116102a55780632a55205a146104ee5780632f745c591461052d57806339a0c6f91461054d57610364565b80631d3afee61461047e5780631e05e4501461049e57806323b872dd146104ce57610364565b8063095ea7b3116102fc578063095ea7b31461042a57806312065fe01461044c57806318160ddd1461046957610364565b806301ffc9a71461039b57806306fdde03146103d0578063081812fc146103f257610364565b36610364576040805134815242602082015233917fde036a4c4e38caa9ca3becc89e7c5899151feaea6129cf8964ce3c58b5a15f4091015b60405180910390a2005b6040805134815242602082015233917fde036a4c4e38caa9ca3becc89e7c5899151feaea6129cf8964ce3c58b5a15f40910161035a565b3480156103a757600080fd5b506103bb6103b63660046133b0565b610a63565b60405190151581526020015b60405180910390f35b3480156103dc57600080fd5b506103e5610a8e565b6040516103c7919061370a565b3480156103fe57600080fd5b5061041261040d3660046134f0565b610b20565b6040516001600160a01b0390911681526020016103c7565b34801561043657600080fd5b5061044a6104453660046132c8565b610b47565b005b34801561045857600080fd5b50475b6040519081526020016103c7565b34801561047557600080fd5b5060085461045b565b34801561048a57600080fd5b506104126104993660046134f0565b610c62565b6104b16104ac36600461341b565b610c8c565b604080519283526001600160a01b039091166020830152016103c7565b3480156104da57600080fd5b5061044a6104e93660046131de565b610e50565b3480156104fa57600080fd5b5061050e610509366004613520565b610ec7565b604080516001600160a01b0390931683526020830191909152016103c7565b34801561053957600080fd5b5061045b6105483660046132c8565b610f3d565b34801561055957600080fd5b506103e56105683660046133e8565b610fd3565b34801561057957600080fd5b5061044a6105883660046131de565b611084565b34801561059957600080fd5b506011546105ae90600160a01b900460ff1681565b60405160ff90911681526020016103c7565b3480156105cc57600080fd5b506105e06105db36600461318a565b61109f565b6040516103c791906136c6565b3480156105f957600080fd5b506103bb6106083660046134f0565b61110a565b34801561061957600080fd5b5061045b6106283660046134f0565b611129565b34801561063957600080fd5b506103e56106483660046133e8565b6111ca565b34801561065957600080fd5b506106626111ee565b6040516103c79190613658565b34801561067b57600080fd5b5061066261068a36600461318a565b61124f565b34801561069b57600080fd5b506104126106aa3660046134f0565b6112c4565b3480156106bb57600080fd5b506103bb6106ca3660046134f0565b611329565b3480156106db57600080fd5b506103bb6106ea3660046132c8565b611438565b3480156106fb57600080fd5b506103e561153a565b34801561071057600080fd5b5061045b61071f36600461318a565b6115c8565b34801561073057600080fd5b5061044a61164e565b61045b61074736600461318a565b611662565b34801561075857600080fd5b5060125461045b9081565b34801561076f57600080fd5b50600a546001600160a01b0316610412565b34801561078d57600080fd5b506103e561189e565b3480156107a257600080fd5b506103bb6107b1366004613541565b6118ad565b3480156107c257600080fd5b5061044a6107d136600461329b565b6118d9565b3480156107e257600080fd5b506103bb6107f13660046132c8565b6118e8565b34801561080257600080fd5b506103bb61081136600461318a565b6119f5565b61044a611a37565b34801561082a57600080fd5b506104126108393660046134f0565b6014602052600090815260409020546001600160a01b031681565b34801561086057600080fd5b5061044a61086f36600461321e565b611a73565b34801561088057600080fd5b5061045b61088f3660046132c8565b611af1565b3480156108a057600080fd5b506104126108af3660046134f0565b6015602052600090815260409020546001600160a01b031681565b3480156108d657600080fd5b506104126108e53660046132c8565b611b22565b3480156108f657600080fd5b50601154610412906001600160a01b031681565b34801561091657600080fd5b506103e56109253660046134f0565b611b5a565b34801561093657600080fd5b50600e54610412906001600160a01b031681565b34801561095657600080fd5b506103bb6109653660046131a6565b601760209081526000928352604080842090915290825290205460ff1681565b34801561099157600080fd5b506103e5611cba565b3480156109a657600080fd5b506103bb6109b53660046131a6565b6001600160a01b03918216600090815260056020908152604080832093909416825291909152205460ff1690565b3480156109ef57600080fd5b506104126109fe36600461318a565b611cc9565b348015610a0f57600080fd5b5061044a610a1e36600461318a565b611cf2565b348015610a2f57600080fd5b5061050e610a3e3660046134f0565b601860205260009081526040902080546001909101546001600160a01b039091169082565b60006001600160e01b0319821663780e9d6360e01b1480610a885750610a8882611e02565b92915050565b606060008054610a9d9061380c565b80601f0160208091040260200160405190810160405280929190818152602001828054610ac99061380c565b8015610b165780601f10610aeb57610100808354040283529160200191610b16565b820191906000526020600020905b815481529060010190602001808311610af957829003601f168201915b5050505050905090565b6000610b2b82611e52565b506000908152600460205260409020546001600160a01b031690565b6000610b52826112c4565b9050806001600160a01b0316836001600160a01b03161415610bc55760405162461bcd60e51b815260206004820152602160248201527f4552433732313a20617070726f76616c20746f2063757272656e74206f776e656044820152603960f91b60648201526084015b60405180910390fd5b336001600160a01b0382161480610be15750610be181336109b5565b610c535760405162461bcd60e51b815260206004820152603d60248201527f4552433732313a20617070726f76652063616c6c6572206973206e6f7420746f60448201527f6b656e206f776e6572206f7220617070726f76656420666f7220616c6c0000006064820152608401610bbc565b610c5d8383611eb6565b505050565b600f8181548110610c7257600080fd5b6000918252602090912001546001600160a01b0316905081565b6000806000855111610ce05760405162461bcd60e51b815260206004820152601260248201527f656d70747920636f6e74726163742075726900000000000000000000000000006044820152606401610bbc565b6000610cee85856001611f24565b9050610cf981612026565b6000805b8651811015610ded57868181518110610d2657634e487b7160e01b600052603260045260246000fd5b60200260200101516001600160a01b0316336001600160a01b03161415610ddb57610d79878281518110610d6a57634e487b7160e01b600052603260045260246000fd5b6020026020010151848a61215b565b915087604051610d8991906135d1565b60405190819003812063ffffffff421682529033906001600160a01b038716907f456581a694237682875f14ca77ffae2ac56103160254db4f47ad1201055307739060200160405180910390a4610ded565b80610de581613847565b915050610cfd565b50846001600160a01b0316336001600160a01b0316836001600160a01b03167f47dd6d6bf5e6e82e606137f06a824304e136d48c3d5ee484d0bedaf19e41bd898942604051610e3d92919061369e565b60405180910390a4969095509350505050565b610e5a3382612234565b610ebc5760405162461bcd60e51b815260206004820152602d60248201527f4552433732313a2063616c6c6572206973206e6f7420746f6b656e206f776e6560448201526c1c881bdc88185c1c1c9bdd9959609a1b6064820152608401610bbc565b610c5d8383836122b2565b6000828152601860209081526040808320815180830190925280546001600160a01b0316808352600190910154928201929092528291610f0e576000809250925050610f36565b6000612710826020015186610f2391906137aa565b610f2d919061378a565b91519350909150505b9250929050565b6000610f48836115c8565b8210610faa5760405162461bcd60e51b815260206004820152602b60248201527f455243373231456e756d657261626c653a206f776e657220696e646578206f7560448201526a74206f6620626f756e647360a81b6064820152608401610bbc565b506001600160a01b03919091166000908152600660209081526040808320938352929052205490565b6060610fdd61249f565b8151610ff090600b906020850190613078565b50600b8054610ffe9061380c565b80601f016020809104026020016040519081016040528092919081815260200182805461102a9061380c565b80156110775780601f1061104c57610100808354040283529160200191611077565b820191906000526020600020905b81548152906001019060200180831161105a57829003601f168201915b505050505090505b919050565b610c5d83838360405180602001604052806000815250611a73565b6001600160a01b03811660009081526013602090815260409182902080548351818402810184019094528084526060939283018282801561107757602002820191906000526020600020905b8154815260200190600101908083116110eb5750505050509050919050565b6000818152600260205260408120546001600160a01b03161515610a88565b600061113460085490565b82106111975760405162461bcd60e51b815260206004820152602c60248201527f455243373231456e756d657261626c653a20676c6f62616c20696e646578206f60448201526b7574206f6620626f756e647360a01b6064820152608401610bbc565b600882815481106111b857634e487b7160e01b600052603260045260246000fd5b90600052602060002001549050919050565b60606111d461249f565b81516111e790600c906020850190613078565b5090919050565b6060600f805480602002602001604051908101604052809291908181526020018280548015610b1657602002820191906000526020600020905b81546001600160a01b03168152600190910190602001808311611228575050505050905090565b6001600160a01b03811660009081526016602090815260409182902080548351818402810184019094528084526060939283018282801561107757602002820191906000526020600020905b81546001600160a01b0316815260019091019060200180831161129b5750505050509050919050565b6000818152600260205260408120546001600160a01b031680610a885760405162461bcd60e51b815260206004820152601860248201527f4552433732313a20696e76616c696420746f6b656e20494400000000000000006044820152606401610bbc565b600061133361249f565b6000611347600a546001600160a01b031690565b6001600160a01b03168360405160006040518083038185875af1925050503d8060008114611391576040519150601f19603f3d011682016040523d82523d6000602084013e611396565b606091505b50509050806113e75760405162461bcd60e51b815260206004820152601f60248201527f5472616e7366657220746f2042656e6566696369617279206661696c65642e006044820152606401610bbc565b600a546040805185815242602082015281516001600160a01b039093169233927f2e41e1f1a437a2fee5c2d40deaf40d793dd6060da5d50979855342c87fb313d2928290030190a350600192915050565b600061144261249f565b826001600160a01b0381166342842e0e30611465600a546001600160a01b031690565b6040516001600160e01b031960e085901b1681526001600160a01b0392831660048201529116602482015260448101869052606401600060405180830381600087803b1580156114b457600080fd5b505af11580156114c8573d6000803e3d6000fd5b50505050836001600160a01b03166114e8600a546001600160a01b031690565b604080518681524260208201526001600160a01b03929092169133917f58530c195204db43ce7ea4fe134c0ccc70cb6cf6c5a0d6b1bf25324e70762cc591015b60405180910390a45060019392505050565b600b80546115479061380c565b80601f01602080910402602001604051908101604052809291908181526020018280546115739061380c565b80156115c05780601f10611595576101008083540402835291602001916115c0565b820191906000526020600020905b8154815290600101906020018083116115a357829003601f168201915b505050505081565b60006001600160a01b0382166116325760405162461bcd60e51b815260206004820152602960248201527f4552433732313a2061646472657373207a65726f206973206e6f7420612076616044820152683634b21037bbb732b960b91b6064820152608401610bbc565b506001600160a01b031660009081526003602052604090205490565b61165661249f565b61166060006124f9565b565b600080826001600160a01b0316635aa68ac06040518163ffffffff1660e01b815260040160006040518083038186803b15801561169e57600080fd5b505afa1580156116b2573d6000803e3d6000fd5b505050506040513d6000823e601f3d908101601f191682016040526116da91908101906132f3565b90506116e583612026565b6001600160a01b03831660009081526013602052604081208054829061171b57634e487b7160e01b600052603260045260246000fd5b90600052602060002001549050600061173382611b5a565b6001600160a01b038616600090815260176020908152604080832033845290915290205490915060ff161515600114156117a05760405162461bcd60e51b815260206004820152600e60248201526d185b1c9958591e481cda59db995960921b6044820152606401610bbc565b6000805b8451811015611839578481815181106117cd57634e487b7160e01b600052603260045260246000fd5b60200260200101516001600160a01b0316336001600160a01b031614156118275761182085828151811061181157634e487b7160e01b600052603260045260246000fd5b6020026020010151888561215b565b9150611839565b8061183181613847565b9150506117a4565b508160405161184891906135d1565b60405190819003812063ffffffff421682529033906001600160a01b038916907f456581a694237682875f14ca77ffae2ac56103160254db4f47ad1201055307739060200160405180910390a495945050505050565b606060018054610a9d9061380c565b60006118b761249f565b506011805460ff8316600160a01b0260ff60a01b199091161790556001919050565b6118e433838361254b565b5050565b60006118f261249f565b826001600160a01b03811663a9059cbb611914600a546001600160a01b031690565b6040516001600160e01b031960e084901b1681526001600160a01b03909116600482015260248101869052604401602060405180830381600087803b15801561195c57600080fd5b505af1158015611970573d6000803e3d6000fd5b505050506040513d601f19601f820116820180604052508101906119949190613394565b50836001600160a01b03166119b1600a546001600160a01b031690565b604080518681524260208201526001600160a01b03929092169133917ff8c70fd0f0ab529742dab9d00601a5c4355cd038b48ea3ef339379655bbdab469101611528565b60006119ff61249f565b6001600160a01b038216611a1257600080fd5b50601180546001600160a01b0383166001600160a01b03199091161790556001919050565b6040805134815242602082015233917fde036a4c4e38caa9ca3becc89e7c5899151feaea6129cf8964ce3c58b5a15f40910160405180910390a2565b611a7d3383612234565b611adf5760405162461bcd60e51b815260206004820152602d60248201527f4552433732313a2063616c6c6572206973206e6f7420746f6b656e206f776e6560448201526c1c881bdc88185c1c1c9bdd9959609a1b6064820152608401610bbc565b611aeb8484848461261a565b50505050565b60136020528160005260406000208181548110611b0d57600080fd5b90600052602060002001600091509150505481565b60166020528160005260406000208181548110611b3e57600080fd5b6000918252602090912001546001600160a01b03169150829050565b6000818152600260205260409020546060906001600160a01b0316611bc15760405162461bcd60e51b815260206004820152601f60248201527f55524920717565727920666f72206e6f6e6578697374656e7420746f6b656e006044820152606401610bbc565b6000828152600d602052604081208054611bda9061380c565b80601f0160208091040260200160405190810160405280929190818152602001828054611c069061380c565b8015611c535780601f10611c2857610100808354040283529160200191611c53565b820191906000526020600020905b815481529060010190602001808311611c3657829003601f168201915b505050505090506000611c64612698565b9050805160001415611c77575092915050565b815115611ca9578082604051602001611c919291906135ed565b60405160208183030381529060405292505050919050565b611cb2846126a7565b949350505050565b6060600c8054610a9d9061380c565b6000611cd361249f565b50600e80546001600160a01b0319166001600160a01b03831617905590565b611cfa61249f565b6001600160a01b038116611d5f5760405162461bcd60e51b815260206004820152602660248201527f4f776e61626c653a206e6577206f776e657220697320746865207a65726f206160448201526564647265737360d01b6064820152608401610bbc565b611d68816124f9565b50565b6001600160a01b03163b151590565b6001811115611aeb576001600160a01b03841615611dc0576001600160a01b03841660009081526003602052604081208054839290611dba9084906137c9565b90915550505b6001600160a01b03831615611aeb576001600160a01b03831660009081526003602052604081208054839290611df7908490613772565b909155505050505050565b60006001600160e01b031982166380ac58cd60e01b1480611e3357506001600160e01b03198216635b5e139f60e01b145b80610a8857506301ffc9a760e01b6001600160e01b0319831614610a88565b6000818152600260205260409020546001600160a01b0316611d685760405162461bcd60e51b815260206004820152601860248201527f4552433732313a20696e76616c696420746f6b656e20494400000000000000006044820152606401610bbc565b600081815260046020526040902080546001600160a01b0319166001600160a01b0384169081179091558190611eeb826112c4565b6001600160a01b03167f8c5be1e5ebec7d5bd14f71427d1e84f3dd0314c0f7b2291e5b200ac8c7c3b92560405160405180910390a45050565b600080611f2f61270e565b600f80546001810182556000919091527f8d1108e10bcb7c27dddfc02ed9d693a074039d026cf4ea4240b40f7d581ac8020180546001600160a01b0319166001600160a01b038316908117909155604051637aee1c6b60e01b815291925090637aee1c6b90611fa69088908890889060040161366b565b600060405180830381600087803b158015611fc057600080fd5b505af1158015611fd4573d6000803e3d6000fd5b505060405163ffffffff421681523392506001600160a01b03841691507f36d4e3468046083929f1c59ce1952ac5f70d445230a40ba2b81a7263bf23c53c9060200160405180910390a3949350505050565b3415611d68576002816001600160a01b031663a26dbf266040518163ffffffff1660e01b815260040160206040518083038186803b15801561206757600080fd5b505afa15801561207b573d6000803e3d6000fd5b505050506040513d601f19601f8201168201806040525081019061209f9190613508565b11156120ed5760405162461bcd60e51b815260206004820152601760248201527f63616e6e6f74206469726563746c79206465706f7369740000000000000000006044820152606401610bbc565b604051638340f54960e01b8152600060048201526001600160a01b0382166024820181905234604483018190529091638340f54991906064016000604051808303818588803b15801561213f57600080fd5b505af1158015612153573d6000803e3d6000fd5b505050505050565b600061216b601280546001019055565b600061217660125490565b905061218285826127d0565b61218c81846127ea565b6001600160a01b038085166000818152601360209081526040808320805460018181018355918552838520018790558684526014835281842080546001600160a01b03199081168717909155601584528285208054978d16978216881790558685526016845282852080548084018255908652848620018054909116861790559383526017825280832094835293905291909120805460ff1916909117905590509392505050565b600080612240836112c4565b9050806001600160a01b0316846001600160a01b0316148061228757506001600160a01b0380821660009081526005602090815260408083209388168352929052205460ff165b80611cb25750836001600160a01b03166122a084610b20565b6001600160a01b031614949350505050565b826001600160a01b03166122c5826112c4565b6001600160a01b0316146123295760405162461bcd60e51b815260206004820152602560248201527f4552433732313a207472616e736665722066726f6d20696e636f72726563742060448201526437bbb732b960d91b6064820152608401610bbc565b6001600160a01b03821661238b5760405162461bcd60e51b8152602060048201526024808201527f4552433732313a207472616e7366657220746f20746865207a65726f206164646044820152637265737360e01b6064820152608401610bbc565b612398838383600161286d565b826001600160a01b03166123ab826112c4565b6001600160a01b03161461240f5760405162461bcd60e51b815260206004820152602560248201527f4552433732313a207472616e736665722066726f6d20696e636f72726563742060448201526437bbb732b960d91b6064820152608401610bbc565b600081815260046020908152604080832080546001600160a01b03199081169091556001600160a01b0387811680865260038552838620805460001901905590871680865283862080546001019055868652600290945282852080549092168417909155905184937fddf252ad1be2c89b69c2b068fc378daa952ba7f163c4a11628f55a4df523b3ef91a4505050565b600a546001600160a01b031633146116605760405162461bcd60e51b815260206004820181905260248201527f4f776e61626c653a2063616c6c6572206973206e6f7420746865206f776e65726044820152606401610bbc565b600a80546001600160a01b038381166001600160a01b0319831681179093556040519116919082907f8be0079c531659141344cd1fd0a4f28419497f9722a3daafe3b4186f6b6457e090600090a35050565b816001600160a01b0316836001600160a01b031614156125ad5760405162461bcd60e51b815260206004820152601960248201527f4552433732313a20617070726f766520746f2063616c6c6572000000000000006044820152606401610bbc565b6001600160a01b03838116600081815260056020908152604080832094871680845294825291829020805460ff191686151590811790915591519182527f17307eab39ab6107e8899845ad3d59bd9653f200f220920489ca2b5937696c31910160405180910390a3505050565b6126258484846122b2565b612631848484846129b5565b611aeb5760405162461bcd60e51b815260206004820152603260248201527f4552433732313a207472616e7366657220746f206e6f6e20455243373231526560448201527131b2b4bb32b91034b6b83632b6b2b73a32b960711b6064820152608401610bbc565b6060600b8054610a9d9061380c565b60606126b282611e52565b60006126bc612698565b905060008151116126dc5760405180602001604052806000815250612707565b806126e684612b0d565b6040516020016126f79291906135ed565b6040516020818303038152906040525b9392505050565b600e546040517f3d602d80600a3d3981f3363d3d373d3d3d363d73000000000000000000000000815260609190911b6bffffffffffffffffffffffff1916601482018190526e5af43d82803e903d91602b57fd5bf360881b602883015260009160378184f09250506001600160a01b0382166127cc5760405162461bcd60e51b815260206004820152601560248201527f455243313136373a20636c6f6e65206661696c656400000000000000000000006044820152606401610bbc565b5090565b6118e4828260405180602001604052806000815250612bc5565b6000828152600260205260409020546001600160a01b031661284e5760405162461bcd60e51b815260206004820152601c60248201527f55524920736574206f66206e6f6e6578697374656e7420746f6b656e000000006044820152606401610bbc565b6000828152600d602090815260409091208251610c5d92840190613078565b61287984848484611d7a565b60018111156128f05760405162461bcd60e51b815260206004820152603560248201527f455243373231456e756d657261626c653a20636f6e736563757469766520747260448201527f616e7366657273206e6f7420737570706f7274656400000000000000000000006064820152608401610bbc565b816001600160a01b03851661294c5761294781600880546000838152600960205260408120829055600182018355919091527ff3f7a9fe364faab93b216da50a3214154f22a0a2b415b23a84c8169e8b636ee30155565b61296f565b836001600160a01b0316856001600160a01b03161461296f5761296f8582612c43565b6001600160a01b03841661298b5761298681612ce0565b6129ae565b846001600160a01b0316846001600160a01b0316146129ae576129ae8482612db9565b5050505050565b60006001600160a01b0384163b15612b0257604051630a85bd0160e11b81526001600160a01b0385169063150b7a02906129f990339089908890889060040161361c565b602060405180830381600087803b158015612a1357600080fd5b505af1925050508015612a43575060408051601f3d908101601f19168201909252612a40918101906133cc565b60015b612ae8573d808015612a71576040519150601f19603f3d011682016040523d82523d6000602084013e612a76565b606091505b508051612ae05760405162461bcd60e51b815260206004820152603260248201527f4552433732313a207472616e7366657220746f206e6f6e20455243373231526560448201527131b2b4bb32b91034b6b83632b6b2b73a32b960711b6064820152608401610bbc565b805181602001fd5b6001600160e01b031916630a85bd0160e11b149050611cb2565b506001949350505050565b60606000612b1a83612dfd565b600101905060008167ffffffffffffffff811115612b4857634e487b7160e01b600052604160045260246000fd5b6040519080825280601f01601f191660200182016040528015612b72576020820181803683370190505b5090508181016020015b600019017f3031323334353637383961626364656600000000000000000000000000000000600a86061a8153600a8504945084612bb857612bbd565b612b7c565b509392505050565b612bcf8383612edf565b612bdc60008484846129b5565b610c5d5760405162461bcd60e51b815260206004820152603260248201527f4552433732313a207472616e7366657220746f206e6f6e20455243373231526560448201527131b2b4bb32b91034b6b83632b6b2b73a32b960711b6064820152608401610bbc565b60006001612c50846115c8565b612c5a91906137c9565b600083815260076020526040902054909150808214612cad576001600160a01b03841660009081526006602090815260408083208584528252808320548484528184208190558352600790915290208190555b5060009182526007602090815260408084208490556001600160a01b039094168352600681528383209183525290812055565b600854600090612cf2906001906137c9565b60008381526009602052604081205460088054939450909284908110612d2857634e487b7160e01b600052603260045260246000fd5b906000526020600020015490508060088381548110612d5757634e487b7160e01b600052603260045260246000fd5b6000918252602080832090910192909255828152600990915260408082208490558582528120556008805480612d9d57634e487b7160e01b600052603160045260246000fd5b6001900381819060005260206000200160009055905550505050565b6000612dc4836115c8565b6001600160a01b039093166000908152600660209081526040808320868452825280832085905593825260079052919091209190915550565b6000807a184f03e93ff9f4daa797ed6e38ed64bf6a1f0100000000000000008310612e46577a184f03e93ff9f4daa797ed6e38ed64bf6a1f010000000000000000830492506040015b6d04ee2d6d415b85acef81000000008310612e72576d04ee2d6d415b85acef8100000000830492506020015b662386f26fc100008310612e9057662386f26fc10000830492506010015b6305f5e1008310612ea8576305f5e100830492506008015b6127108310612ebc57612710830492506004015b60648310612ece576064830492506002015b600a8310610a885760010192915050565b6001600160a01b038216612f355760405162461bcd60e51b815260206004820181905260248201527f4552433732313a206d696e7420746f20746865207a65726f20616464726573736044820152606401610bbc565b6000818152600260205260409020546001600160a01b031615612f9a5760405162461bcd60e51b815260206004820152601c60248201527f4552433732313a20746f6b656e20616c7265616479206d696e746564000000006044820152606401610bbc565b612fa860008383600161286d565b6000818152600260205260409020546001600160a01b03161561300d5760405162461bcd60e51b815260206004820152601c60248201527f4552433732313a20746f6b656e20616c7265616479206d696e746564000000006044820152606401610bbc565b6001600160a01b038216600081815260036020908152604080832080546001019055848352600290915280822080546001600160a01b0319168417905551839291907fddf252ad1be2c89b69c2b068fc378daa952ba7f163c4a11628f55a4df523b3ef908290a45050565b8280546130849061380c565b90600052602060002090601f0160209004810192826130a657600085556130ec565b82601f106130bf57805160ff19168380011785556130ec565b828001600101855582156130ec579182015b828111156130ec5782518255916020019190600101906130d1565b506127cc9291505b808211156127cc57600081556001016130f4565b600067ffffffffffffffff83111561312257613122613878565b613135601f8401601f191660200161371d565b905082815283838301111561314957600080fd5b828260208301376000602084830101529392505050565b803561107f8161388e565b600082601f83011261317b578081fd5b61270783833560208501613108565b60006020828403121561319b578081fd5b81356127078161388e565b600080604083850312156131b8578081fd5b82356131c38161388e565b915060208301356131d38161388e565b809150509250929050565b6000806000606084860312156131f2578081fd5b83356131fd8161388e565b9250602084013561320d8161388e565b929592945050506040919091013590565b60008060008060808587031215613233578081fd5b843561323e8161388e565b9350602085013561324e8161388e565b925060408501359150606085013567ffffffffffffffff811115613270578182fd5b8501601f81018713613280578182fd5b61328f87823560208401613108565b91505092959194509250565b600080604083850312156132ad578182fd5b82356132b88161388e565b915060208301356131d3816138a3565b600080604083850312156132da578182fd5b82356132e58161388e565b946020939093013593505050565b60006020808385031215613305578182fd5b825167ffffffffffffffff81111561331b578283fd5b8301601f8101851361332b578283fd5b805161333e6133398261374e565b61371d565b80828252848201915084840188868560051b870101111561335d578687fd5b8694505b838510156133885780516133748161388e565b835260019490940193918501918501613361565b50979650505050505050565b6000602082840312156133a5578081fd5b8151612707816138a3565b6000602082840312156133c1578081fd5b8135612707816138b1565b6000602082840312156133dd578081fd5b8151612707816138b1565b6000602082840312156133f9578081fd5b813567ffffffffffffffff81111561340f578182fd5b611cb28482850161316b565b60008060006060848603121561342f578081fd5b833567ffffffffffffffff80821115613446578283fd5b6134528783880161316b565b9450602091508186013581811115613468578384fd5b86019050601f8101871361347a578283fd5b80356134886133398261374e565b8082825284820191508484018a868560051b87010111156134a7578687fd5b8694505b838510156134d25780356134be8161388e565b8352600194909401939185019185016134ab565b5080965050505050506134e760408501613160565b90509250925092565b600060208284031215613501578081fd5b5035919050565b600060208284031215613519578081fd5b5051919050565b60008060408385031215613532578182fd5b50508035926020909101359150565b600060208284031215613552578081fd5b813560ff81168114612707578182fd5b6000815180845260208085019450808401835b8381101561359a5781516001600160a01b031687529582019590820190600101613575565b509495945050505050565b600081518084526135bd8160208601602086016137e0565b601f01601f19169290920160200192915050565b600082516135e38184602087016137e0565b9190910192915050565b600083516135ff8184602088016137e0565b8351908301906136138183602088016137e0565b01949350505050565b60006001600160a01b0380871683528086166020840152508360408301526080606083015261364e60808301846135a5565b9695505050505050565b6020815260006127076020830184613562565b60608152600061367e6060830186613562565b6001600160a01b0394909416602083015250901515604090910152919050565b6040815260006136b16040830185613562565b905063ffffffff831660208301529392505050565b6020808252825182820181905260009190848201906040850190845b818110156136fe578351835292840192918401916001016136e2565b50909695505050505050565b60208152600061270760208301846135a5565b604051601f8201601f1916810167ffffffffffffffff8111828210171561374657613746613878565b604052919050565b600067ffffffffffffffff82111561376857613768613878565b5060051b60200190565b6000821982111561378557613785613862565b500190565b6000826137a557634e487b7160e01b81526012600452602481fd5b500490565b60008160001904831182151516156137c4576137c4613862565b500290565b6000828210156137db576137db613862565b500390565b60005b838110156137fb5781810151838201526020016137e3565b83811115611aeb5750506000910152565b600181811c9082168061382057607f821691505b6020821081141561384157634e487b7160e01b600052602260045260246000fd5b50919050565b600060001982141561385b5761385b613862565b5060010190565b634e487b7160e01b600052601160045260246000fd5b634e487b7160e01b600052604160045260246000fd5b6001600160a01b0381168114611d6857600080fd5b8015158114611d6857600080fd5b6001600160e01b031981168114611d6857600080fdfea26469706673582212205c2e661fd3518d4addb548d080a998ac64b4ded059b5a5885d1c168a4de819f664736f6c634300080400334552433732313a207472616e7366657220746f206e6f6e204552433732315265",
  "devdoc": {
    "author": "hey@kumareth.com",
    "kind": "dev",
    "methods": {
      "approve(address,uint256)": {
        "details": "See {IERC721-approve}."
      },
      "balanceOf(address)": {
        "details": "See {IERC721-balanceOf}."
      },
      "changeFeesPermyriad(uint8)": {
        "params": {
          "_feesPermyriad": "Range: 0-255 (0.00% - 2.55%)"
        },
        "returns": {
          "_success": "Boolean to indicate if the fees were changed successfully"
        }
      },
      "changeTreasuryAddress(address)": {
        "params": {
          "_treasuryAddress": "Any address that is non-zero"
        },
        "returns": {
          "_success": "Boolean to indicate if the fees were changed successfully"
        }
      },
      "constructor": {
        "details": "Constructor function for the Judiciary ERC721 Contract",
        "params": {
          "contractURI_": "URL of Json metadata for this Contract",
          "initialAddresses_": "Address of the Owner Contract that manages Permissions.",
          "name_": "Name of the Judiciary artifact Collection",
          "symbol_": "Symbol for the Judiciary NFTs"
        }
      },
      "createContract(string,address[],address)": {
        "params": {
          "_contractURI": "URL of the JSON metadata for the Contract (can be IPFS hash)",
          "_intendedSignatories": "Array of addresses of the intended signatories",
          "_judge": "Address of the judge who can resolve the contract related dispute"
        },
        "returns": {
          "_escrowWalletAddress": "Address of the Escrow Wallet created for the contract",
          "_tokenId": "Token ID of the NFT created"
        }
      },
      "fetchEscrowAddressesBySignerAddress(address)": {
        "details": "returns an array of escrowAddresses for the given signerAddress",
        "params": {
          "_signerAddress": "Address of the Signer"
        },
        "returns": {
          "_escrowAddressesBySignerAddress": "Array of Escrow Addresses"
        }
      },
      "fetchTokenIdsByEscrowAddress(address)": {
        "details": "returns an array of tokenIds for the given escrowAddress",
        "params": {
          "_escrowAddress": "Address of the Escrow Wallet"
        },
        "returns": {
          "_tokenIds": "Array of Token IDs"
        }
      },
      "getApproved(uint256)": {
        "details": "See {IERC721-getApproved}."
      },
      "isApprovedForAll(address,address)": {
        "details": "See {IERC721-isApprovedForAll}."
      },
      "name()": {
        "details": "See {IERC721Metadata-name}."
      },
      "owner()": {
        "details": "Returns the address of the current owner."
      },
      "ownerOf(uint256)": {
        "details": "See {IERC721-ownerOf}."
      },
      "renounceOwnership()": {
        "details": "Leaves the contract without owner. It will not be possible to call `onlyOwner` functions anymore. Can only be called by the current owner. NOTE: Renouncing ownership will leave the contract without an owner, thereby removing any functionality that is only available to the owner."
      },
      "royaltyInfo(uint256,uint256)": {
        "details": "can be used by other contracts to get royaltyInfo",
        "params": {
          "_salePrice": "Desired Sale Price of the token to run calculations on",
          "_tokenID": "Token ID of which royaltyInfo is to be fetched"
        },
        "returns": {
          "receiver": "Address of the receiver of the royalties",
          "royaltyAmount": "Royalty Amount"
        }
      },
      "safeTransferFrom(address,address,uint256)": {
        "details": "See {IERC721-safeTransferFrom}."
      },
      "safeTransferFrom(address,address,uint256,bytes)": {
        "details": "See {IERC721-safeTransferFrom}."
      },
      "sendERC20ToBeneficiary(address,uint256)": {
        "details": "Sends ERC20 tokens the Contract might own, to the Beneficiary",
        "params": {
          "_erc20address": "Address of the ERC20 Contract",
          "_tokenAmount": "Token Amount you think the Contract has, that you want to send to the Beneficiary"
        },
        "returns": {
          "_success": "Whether the transaction was successful or not"
        }
      },
      "sendERC721ToBeneficiary(address,uint256)": {
        "details": "Sends ERC721 tokens the Contract might own, to the Beneficiary",
        "params": {
          "_erc721address": "Address of the ERC721 Contract",
          "_tokenId": "ID of the Token you wish to send to the Beneficiary."
        },
        "returns": {
          "_success": "Whether the transaction was successful or not"
        }
      },
      "sendToBeneficiary(uint256)": {
        "details": "Sends Wei the Contract might own, to the Beneficiary",
        "params": {
          "_amountInWei": "Amount in Wei you think the Contract has, that you want to send to the Beneficiary"
        },
        "returns": {
          "_success": "Whether the transaction was successful or not"
        }
      },
      "setApprovalForAll(address,bool)": {
        "details": "See {IERC721-setApprovalForAll}."
      },
      "signContract(address)": {
        "params": {
          "_escrowWalletAddress": "Address of the Escrow Wallet associated to the contract that you want to sign"
        },
        "returns": {
          "_tokenId": "Token ID of the NFT created"
        }
      },
      "supportsInterface(bytes4)": {
        "details": "See {IERC165-supportsInterface}."
      },
      "symbol()": {
        "details": "See {IERC721Metadata-symbol}."
      },
      "tokenByIndex(uint256)": {
        "details": "See {IERC721Enumerable-tokenByIndex}."
      },
      "tokenOfOwnerByIndex(address,uint256)": {
        "details": "See {IERC721Enumerable-tokenOfOwnerByIndex}."
      },
      "tokenURI(uint256)": {
        "details": "See {IERC721Metadata-tokenURI}."
      },
      "totalSupply()": {
        "details": "See {IERC721Enumerable-totalSupply}."
      },
      "transferFrom(address,address,uint256)": {
        "details": "See {IERC721-transferFrom}."
      },
      "transferOwnership(address)": {
        "details": "Transfers ownership of the contract to a new account (`newOwner`). Can only be called by the current owner."
      }
    },
    "title": "Judiciary Contract",
    "version": 1
  },
  "userdoc": {
    "kind": "user",
    "methods": {
      "changeFeesPermyriad(uint8)": {
        "notice": "For the owner to change the fees (fees can never exceed 2.55%, range: 0-255)"
      },
      "changeTreasuryAddress(address)": {
        "notice": "For the owner to change the treasuryAddress"
      },
      "constructor": {
        "notice": "Constructor function for the Judiciary Contract"
      },
      "createContract(string,address[],address)": {
        "notice": "Create a new Judiciary Contract"
      },
      "fetchEscrowAddressesBySignerAddress(address)": {
        "notice": "returns escrowAddresses for the given signerAddress"
      },
      "fetchTokenIdsByEscrowAddress(address)": {
        "notice": "returns tokenIds for the given escrowAddress"
      },
      "fund()": {
        "notice": "To pay the contract"
      },
      "royaltyInfo(uint256,uint256)": {
        "notice": "returns royalties info for the given Token ID"
      },
      "sendERC20ToBeneficiary(address,uint256)": {
        "notice": "So the Admins can maintain control over all the Tokens this NFT Contract might accidentally own in future (to refund lost tokens, etc.)"
      },
      "sendERC721ToBeneficiary(address,uint256)": {
        "notice": "So the Admins can maintain control over all the ERC721 Tokens this NFT Contract might accidentally own in future (to refund lost NFTs, etc.)"
      },
      "sendToBeneficiary(uint256)": {
        "notice": "So the Admins can maintain control over all the Funds this NFT Contract might accidentally own in future (to refund lost funds, etc.)"
      },
      "signContract(address)": {
        "notice": "Sign a Judiciary Contract"
      }
    },
    "notice": "This contract shall be the prime Judiciary NFT contract for creation of contracts in the Metaverse!",
    "version": 1
  },
  "storageLayout": {
    "storage": [
      {
        "astId": 876,
        "contract": "contracts/Judiciary.sol:Judiciary",
        "label": "_name",
        "offset": 0,
        "slot": "0",
        "type": "t_string_storage"
      },
      {
        "astId": 878,
        "contract": "contracts/Judiciary.sol:Judiciary",
        "label": "_symbol",
        "offset": 0,
        "slot": "1",
        "type": "t_string_storage"
      },
      {
        "astId": 882,
        "contract": "contracts/Judiciary.sol:Judiciary",
        "label": "_owners",
        "offset": 0,
        "slot": "2",
        "type": "t_mapping(t_uint256,t_address)"
      },
      {
        "astId": 886,
        "contract": "contracts/Judiciary.sol:Judiciary",
        "label": "_balances",
        "offset": 0,
        "slot": "3",
        "type": "t_mapping(t_address,t_uint256)"
      },
      {
        "astId": 890,
        "contract": "contracts/Judiciary.sol:Judiciary",
        "label": "_tokenApprovals",
        "offset": 0,
        "slot": "4",
        "type": "t_mapping(t_uint256,t_address)"
      },
      {
        "astId": 896,
        "contract": "contracts/Judiciary.sol:Judiciary",
        "label": "_operatorApprovals",
        "offset": 0,
        "slot": "5",
        "type": "t_mapping(t_address,t_mapping(t_address,t_bool))"
      },
      {
        "astId": 1944,
        "contract": "contracts/Judiciary.sol:Judiciary",
        "label": "_ownedTokens",
        "offset": 0,
        "slot": "6",
        "type": "t_mapping(t_address,t_mapping(t_uint256,t_uint256))"
      },
      {
        "astId": 1948,
        "contract": "contracts/Judiciary.sol:Judiciary",
        "label": "_ownedTokensIndex",
        "offset": 0,
        "slot": "7",
        "type": "t_mapping(t_uint256,t_uint256)"
      },
      {
        "astId": 1951,
        "contract": "contracts/Judiciary.sol:Judiciary",
        "label": "_allTokens",
        "offset": 0,
        "slot": "8",
        "type": "t_array(t_uint256)dyn_storage"
      },
      {
        "astId": 1955,
        "contract": "contracts/Judiciary.sol:Judiciary",
        "label": "_allTokensIndex",
        "offset": 0,
        "slot": "9",
        "type": "t_mapping(t_uint256,t_uint256)"
      },
      {
        "astId": 533,
        "contract": "contracts/Judiciary.sol:Judiciary",
        "label": "_owner",
        "offset": 0,
        "slot": "10",
        "type": "t_address"
      },
      {
        "astId": 5776,
        "contract": "contracts/Judiciary.sol:Judiciary",
        "label": "baseURI",
        "offset": 0,
        "slot": "11",
        "type": "t_string_storage"
      },
      {
        "astId": 5805,
        "contract": "contracts/Judiciary.sol:Judiciary",
        "label": "_contractURI",
        "offset": 0,
        "slot": "12",
        "type": "t_string_storage"
      },
      {
        "astId": 5845,
        "contract": "contracts/Judiciary.sol:Judiciary",
        "label": "_tokenURIs",
        "offset": 0,
        "slot": "13",
        "type": "t_mapping(t_uint256,t_string_storage)"
      },
      {
        "astId": 5057,
        "contract": "contracts/Judiciary.sol:Judiciary",
        "label": "escrowContractAddress",
        "offset": 0,
        "slot": "14",
        "type": "t_address"
      },
      {
        "astId": 5060,
        "contract": "contracts/Judiciary.sol:Judiciary",
        "label": "allEscrows",
        "offset": 0,
        "slot": "15",
        "type": "t_array(t_address)dyn_storage"
      },
      {
        "astId": 729,
        "contract": "contracts/Judiciary.sol:Judiciary",
        "label": "_status",
        "offset": 0,
        "slot": "16",
        "type": "t_uint256"
      },
      {
        "astId": 5237,
        "contract": "contracts/Judiciary.sol:Judiciary",
        "label": "treasuryAddress",
        "offset": 0,
        "slot": "17",
        "type": "t_address"
      },
      {
        "astId": 5240,
        "contract": "contracts/Judiciary.sol:Judiciary",
        "label": "feesPermyriad",
        "offset": 20,
        "slot": "17",
        "type": "t_uint8"
      },
      {
        "astId": 5247,
        "contract": "contracts/Judiciary.sol:Judiciary",
        "label": "totalTokensMinted",
        "offset": 0,
        "slot": "18",
        "type": "t_struct(Counter)2699_storage"
      },
      {
        "astId": 5252,
        "contract": "contracts/Judiciary.sol:Judiciary",
        "label": "getTokenIdsByEscrowAddress",
        "offset": 0,
        "slot": "19",
        "type": "t_mapping(t_address,t_array(t_uint256)dyn_storage)"
      },
      {
        "astId": 5256,
        "contract": "contracts/Judiciary.sol:Judiciary",
        "label": "getEscrowAddressByTokenId",
        "offset": 0,
        "slot": "20",
        "type": "t_mapping(t_uint256,t_address)"
      },
      {
        "astId": 5260,
        "contract": "contracts/Judiciary.sol:Judiciary",
        "label": "getContractSignerByTokenId",
        "offset": 0,
        "slot": "21",
        "type": "t_mapping(t_uint256,t_address)"
      },
      {
        "astId": 5265,
        "contract": "contracts/Judiciary.sol:Judiciary",
        "label": "getEscrowAddressesBySignerAddress",
        "offset": 0,
        "slot": "22",
        "type": "t_mapping(t_address,t_array(t_address)dyn_storage)"
      },
      {
        "astId": 5271,
        "contract": "contracts/Judiciary.sol:Judiciary",
        "label": "hasSignedContract",
        "offset": 0,
        "slot": "23",
        "type": "t_mapping(t_address,t_mapping(t_address,t_bool))"
      },
      {
        "astId": 5309,
        "contract": "contracts/Judiciary.sol:Judiciary",
        "label": "getRoyaltyInfoByTokenId",
        "offset": 0,
        "slot": "24",
        "type": "t_mapping(t_uint256,t_struct(RoyaltyInfo)5304_storage)"
      }
    ],
    "types": {
      "t_address": {
        "encoding": "inplace",
        "label": "address",
        "numberOfBytes": "20"
      },
      "t_array(t_address)dyn_storage": {
        "base": "t_address",
        "encoding": "dynamic_array",
        "label": "address[]",
        "numberOfBytes": "32"
      },
      "t_array(t_uint256)dyn_storage": {
        "base": "t_uint256",
        "encoding": "dynamic_array",
        "label": "uint256[]",
        "numberOfBytes": "32"
      },
      "t_bool": {
        "encoding": "inplace",
        "label": "bool",
        "numberOfBytes": "1"
      },
      "t_mapping(t_address,t_array(t_address)dyn_storage)": {
        "encoding": "mapping",
        "key": "t_address",
        "label": "mapping(address => address[])",
        "numberOfBytes": "32",
        "value": "t_array(t_address)dyn_storage"
      },
      "t_mapping(t_address,t_array(t_uint256)dyn_storage)": {
        "encoding": "mapping",
        "key": "t_address",
        "label": "mapping(address => uint256[])",
        "numberOfBytes": "32",
        "value": "t_array(t_uint256)dyn_storage"
      },
      "t_mapping(t_address,t_bool)": {
        "encoding": "mapping",
        "key": "t_address",
        "label": "mapping(address => bool)",
        "numberOfBytes": "32",
        "value": "t_bool"
      },
      "t_mapping(t_address,t_mapping(t_address,t_bool))": {
        "encoding": "mapping",
        "key": "t_address",
        "label": "mapping(address => mapping(address => bool))",
        "numberOfBytes": "32",
        "value": "t_mapping(t_address,t_bool)"
      },
      "t_mapping(t_address,t_mapping(t_uint256,t_uint256))": {
        "encoding": "mapping",
        "key": "t_address",
        "label": "mapping(address => mapping(uint256 => uint256))",
        "numberOfBytes": "32",
        "value": "t_mapping(t_uint256,t_uint256)"
      },
      "t_mapping(t_address,t_uint256)": {
        "encoding": "mapping",
        "key": "t_address",
        "label": "mapping(address => uint256)",
        "numberOfBytes": "32",
        "value": "t_uint256"
      },
      "t_mapping(t_uint256,t_address)": {
        "encoding": "mapping",
        "key": "t_uint256",
        "label": "mapping(uint256 => address)",
        "numberOfBytes": "32",
        "value": "t_address"
      },
      "t_mapping(t_uint256,t_string_storage)": {
        "encoding": "mapping",
        "key": "t_uint256",
        "label": "mapping(uint256 => string)",
        "numberOfBytes": "32",
        "value": "t_string_storage"
      },
      "t_mapping(t_uint256,t_struct(RoyaltyInfo)5304_storage)": {
        "encoding": "mapping",
        "key": "t_uint256",
        "label": "mapping(uint256 => struct Judiciary.RoyaltyInfo)",
        "numberOfBytes": "32",
        "value": "t_struct(RoyaltyInfo)5304_storage"
      },
      "t_mapping(t_uint256,t_uint256)": {
        "encoding": "mapping",
        "key": "t_uint256",
        "label": "mapping(uint256 => uint256)",
        "numberOfBytes": "32",
        "value": "t_uint256"
      },
      "t_string_storage": {
        "encoding": "bytes",
        "label": "string",
        "numberOfBytes": "32"
      },
      "t_struct(Counter)2699_storage": {
        "encoding": "inplace",
        "label": "struct Counters.Counter",
        "members": [
          {
            "astId": 2698,
            "contract": "contracts/Judiciary.sol:Judiciary",
            "label": "_value",
            "offset": 0,
            "slot": "0",
            "type": "t_uint256"
          }
        ],
        "numberOfBytes": "32"
      },
      "t_struct(RoyaltyInfo)5304_storage": {
        "encoding": "inplace",
        "label": "struct Judiciary.RoyaltyInfo",
        "members": [
          {
            "astId": 5301,
            "contract": "contracts/Judiciary.sol:Judiciary",
            "label": "receiver",
            "offset": 0,
            "slot": "0",
            "type": "t_address"
          },
          {
            "astId": 5303,
            "contract": "contracts/Judiciary.sol:Judiciary",
            "label": "percent",
            "offset": 0,
            "slot": "1",
            "type": "t_uint256"
          }
        ],
        "numberOfBytes": "64"
      },
      "t_uint256": {
        "encoding": "inplace",
        "label": "uint256",
        "numberOfBytes": "32"
      },
      "t_uint8": {
        "encoding": "inplace",
        "label": "uint8",
        "numberOfBytes": "1"
      }
    }
  }
}